{
	"contracts/hakvotingpemegangsaham.sol": {
		"HakVotingSaham": {
			"abi": [
				{
					"inputs": [],
					"stateMutability": "nonpayable",
					"type": "constructor"
				},
				{
					"inputs": [
						{
							"internalType": "address",
							"name": "",
							"type": "address"
						}
					],
					"name": "daftarSaham",
					"outputs": [
						{
							"internalType": "string",
							"name": "nama",
							"type": "string"
						},
						{
							"internalType": "uint256",
							"name": "jumlahSaham",
							"type": "uint256"
						},
						{
							"internalType": "bool",
							"name": "terdaftar",
							"type": "bool"
						}
					],
					"stateMutability": "view",
					"type": "function"
				},
				{
					"inputs": [],
					"name": "hasilVoting",
					"outputs": [
						{
							"internalType": "string",
							"name": "",
							"type": "string"
						},
						{
							"internalType": "uint256",
							"name": "",
							"type": "uint256"
						},
						{
							"internalType": "uint256",
							"name": "",
							"type": "uint256"
						},
						{
							"internalType": "bool",
							"name": "",
							"type": "bool"
						}
					],
					"stateMutability": "view",
					"type": "function"
				},
				{
					"inputs": [
						{
							"internalType": "address",
							"name": "_alamat",
							"type": "address"
						}
					],
					"name": "lihatHakVoting",
					"outputs": [
						{
							"internalType": "uint256",
							"name": "",
							"type": "uint256"
						}
					],
					"stateMutability": "view",
					"type": "function"
				},
				{
					"inputs": [
						{
							"internalType": "string",
							"name": "_judul",
							"type": "string"
						}
					],
					"name": "mulaiVoting",
					"outputs": [],
					"stateMutability": "nonpayable",
					"type": "function"
				},
				{
					"inputs": [],
					"name": "owner",
					"outputs": [
						{
							"internalType": "address",
							"name": "",
							"type": "address"
						}
					],
					"stateMutability": "view",
					"type": "function"
				},
				{
					"inputs": [
						{
							"internalType": "address",
							"name": "",
							"type": "address"
						}
					],
					"name": "sudahVoting",
					"outputs": [
						{
							"internalType": "bool",
							"name": "",
							"type": "bool"
						}
					],
					"stateMutability": "view",
					"type": "function"
				},
				{
					"inputs": [
						{
							"internalType": "address",
							"name": "_alamat",
							"type": "address"
						},
						{
							"internalType": "string",
							"name": "_nama",
							"type": "string"
						},
						{
							"internalType": "uint256",
							"name": "_jumlahSaham",
							"type": "uint256"
						}
					],
					"name": "tambahPemegangSaham",
					"outputs": [],
					"stateMutability": "nonpayable",
					"type": "function"
				},
				{
					"inputs": [],
					"name": "tutupVoting",
					"outputs": [],
					"stateMutability": "nonpayable",
					"type": "function"
				},
				{
					"inputs": [
						{
							"internalType": "bool",
							"name": "pilihan",
							"type": "bool"
						}
					],
					"name": "voting",
					"outputs": [],
					"stateMutability": "nonpayable",
					"type": "function"
				},
				{
					"inputs": [],
					"name": "votingSaatIni",
					"outputs": [
						{
							"internalType": "string",
							"name": "judul",
							"type": "string"
						},
						{
							"internalType": "uint256",
							"name": "setuju",
							"type": "uint256"
						},
						{
							"internalType": "uint256",
							"name": "tidakSetuju",
							"type": "uint256"
						},
						{
							"internalType": "bool",
							"name": "aktif",
							"type": "bool"
						}
					],
					"stateMutability": "view",
					"type": "function"
				}
			],
			"devdoc": {
				"kind": "dev",
				"methods": {},
				"version": 1
			},
			"evm": {
				"assembly": "    /* \"contracts/hakvotingpemegangsaham.sol\":272:2885  contract HakVotingSaham {... */\n  mstore(0x40, 0x80)\n    /* \"contracts/hakvotingpemegangsaham.sol\":334:385  constructor() {... */\n  callvalue\n  dup1\n  iszero\n  tag_1\n  jumpi\n  revert(0x00, 0x00)\ntag_1:\n  pop\n    /* \"contracts/hakvotingpemegangsaham.sol\":367:377  msg.sender */\n  caller\n    /* \"contracts/hakvotingpemegangsaham.sol\":359:364  owner */\n  0x00\n  0x00\n    /* \"contracts/hakvotingpemegangsaham.sol\":359:377  owner = msg.sender */\n  0x0100\n  exp\n  dup2\n  sload\n  dup2\n  0xffffffffffffffffffffffffffffffffffffffff\n  mul\n  not\n  and\n  swap1\n  dup4\n  0xffffffffffffffffffffffffffffffffffffffff\n  and\n  mul\n  or\n  swap1\n  sstore\n  pop\n    /* \"contracts/hakvotingpemegangsaham.sol\":272:2885  contract HakVotingSaham {... */\n  dataSize(sub_0)\n  dup1\n  dataOffset(sub_0)\n  0x00\n  codecopy\n  0x00\n  return\nstop\n\nsub_0: assembly {\n        /* \"contracts/hakvotingpemegangsaham.sol\":272:2885  contract HakVotingSaham {... */\n      mstore(0x40, 0x80)\n      callvalue\n      dup1\n      iszero\n      tag_1\n      jumpi\n      revert(0x00, 0x00)\n    tag_1:\n      pop\n      jumpi(tag_2, lt(calldatasize, 0x04))\n      shr(0xe0, calldataload(0x00))\n      dup1\n      0xa6aedac8\n      gt\n      tag_13\n      jumpi\n      dup1\n      0xa6aedac8\n      eq\n      tag_8\n      jumpi\n      dup1\n      0xd3df30a6\n      eq\n      tag_9\n      jumpi\n      dup1\n      0xe0afe63c\n      eq\n      tag_10\n      jumpi\n      dup1\n      0xf6df3e5d\n      eq\n      tag_11\n      jumpi\n      dup1\n      0xfede7b9c\n      eq\n      tag_12\n      jumpi\n      jump(tag_2)\n    tag_13:\n      dup1\n      0xab0d23\n      eq\n      tag_3\n      jumpi\n      dup1\n      0x14f1bdcb\n      eq\n      tag_4\n      jumpi\n      dup1\n      0x54dc7796\n      eq\n      tag_5\n      jumpi\n      dup1\n      0x58724b87\n      eq\n      tag_6\n      jumpi\n      dup1\n      0x8da5cb5b\n      eq\n      tag_7\n      jumpi\n    tag_2:\n      revert(0x00, 0x00)\n        /* \"contracts/hakvotingpemegangsaham.sol\":504:556  mapping(address => PemegangSaham) public daftarSaham */\n    tag_3:\n      tag_14\n      0x04\n      dup1\n      calldatasize\n      sub\n      dup2\n      add\n      swap1\n      tag_15\n      swap2\n      swap1\n      tag_16\n      jump\t// in\n    tag_15:\n      tag_17\n      jump\t// in\n    tag_14:\n      mload(0x40)\n      tag_18\n      swap4\n      swap3\n      swap2\n      swap1\n      tag_19\n      jump\t// in\n    tag_18:\n      mload(0x40)\n      dup1\n      swap2\n      sub\n      swap1\n      return\n        /* \"contracts/hakvotingpemegangsaham.sol\":1510:1717  function mulaiVoting(string memory _judul)... */\n    tag_4:\n      tag_20\n      0x04\n      dup1\n      calldatasize\n      sub\n      dup2\n      add\n      swap1\n      tag_21\n      swap2\n      swap1\n      tag_22\n      jump\t// in\n    tag_21:\n      tag_23\n      jump\t// in\n    tag_20:\n      stop\n        /* \"contracts/hakvotingpemegangsaham.sol\":2531:2882  function hasilVoting()... */\n    tag_5:\n      tag_24\n      tag_25\n      jump\t// in\n    tag_24:\n      mload(0x40)\n      tag_26\n      swap5\n      swap4\n      swap3\n      swap2\n      swap1\n      tag_27\n      jump\t// in\n    tag_26:\n      mload(0x40)\n      dup1\n      swap2\n      sub\n      swap1\n      return\n        /* \"contracts/hakvotingpemegangsaham.sol\":2416:2502  function tutupVoting() public onlyOwner {... */\n    tag_6:\n      tag_28\n      tag_29\n      jump\t// in\n    tag_28:\n      stop\n        /* \"contracts/hakvotingpemegangsaham.sol\":305:325  address public owner */\n    tag_7:\n      tag_30\n      tag_31\n      jump\t// in\n    tag_30:\n      mload(0x40)\n      tag_32\n      swap2\n      swap1\n      tag_33\n      jump\t// in\n    tag_32:\n      mload(0x40)\n      dup1\n      swap2\n      sub\n      swap1\n      return\n        /* \"contracts/hakvotingpemegangsaham.sol\":724:767  mapping(address => bool) public sudahVoting */\n    tag_8:\n      tag_34\n      0x04\n      dup1\n      calldatasize\n      sub\n      dup2\n      add\n      swap1\n      tag_35\n      swap2\n      swap1\n      tag_16\n      jump\t// in\n    tag_35:\n      tag_36\n      jump\t// in\n    tag_34:\n      mload(0x40)\n      tag_37\n      swap2\n      swap1\n      tag_38\n      jump\t// in\n    tag_37:\n      mload(0x40)\n      dup1\n      swap2\n      sub\n      swap1\n      return\n        /* \"contracts/hakvotingpemegangsaham.sol\":909:1178  function tambahPemegangSaham(... */\n    tag_9:\n      tag_39\n      0x04\n      dup1\n      calldatasize\n      sub\n      dup2\n      add\n      swap1\n      tag_40\n      swap2\n      swap1\n      tag_41\n      jump\t// in\n    tag_40:\n      tag_42\n      jump\t// in\n    tag_39:\n      stop\n        /* \"contracts/hakvotingpemegangsaham.sol\":688:715  Voting public votingSaatIni */\n    tag_10:\n      tag_43\n      tag_44\n      jump\t// in\n    tag_43:\n      mload(0x40)\n      tag_45\n      swap5\n      swap4\n      swap3\n      swap2\n      swap1\n      tag_27\n      jump\t// in\n    tag_45:\n      mload(0x40)\n      dup1\n      swap2\n      sub\n      swap1\n      return\n        /* \"contracts/hakvotingpemegangsaham.sol\":1755:2387  function voting(bool pilihan) public {... */\n    tag_11:\n      tag_46\n      0x04\n      dup1\n      calldatasize\n      sub\n      dup2\n      add\n      swap1\n      tag_47\n      swap2\n      swap1\n      tag_48\n      jump\t// in\n    tag_47:\n      tag_49\n      jump\t// in\n    tag_46:\n      stop\n        /* \"contracts/hakvotingpemegangsaham.sol\":1211:1476  function lihatHakVoting(address _alamat)... */\n    tag_12:\n      tag_50\n      0x04\n      dup1\n      calldatasize\n      sub\n      dup2\n      add\n      swap1\n      tag_51\n      swap2\n      swap1\n      tag_16\n      jump\t// in\n    tag_51:\n      tag_52\n      jump\t// in\n    tag_50:\n      mload(0x40)\n      tag_53\n      swap2\n      swap1\n      tag_54\n      jump\t// in\n    tag_53:\n      mload(0x40)\n      dup1\n      swap2\n      sub\n      swap1\n      return\n        /* \"contracts/hakvotingpemegangsaham.sol\":504:556  mapping(address => PemegangSaham) public daftarSaham */\n    tag_17:\n      mstore(0x20, 0x01)\n      dup1\n      0x00\n      mstore\n      keccak256(0x00, 0x40)\n      0x00\n      swap2\n      pop\n      swap1\n      pop\n      dup1\n      0x00\n      add\n      dup1\n      sload\n      tag_55\n      swap1\n      tag_56\n      jump\t// in\n    tag_55:\n      dup1\n      0x1f\n      add\n      0x20\n      dup1\n      swap2\n      div\n      mul\n      0x20\n      add\n      mload(0x40)\n      swap1\n      dup2\n      add\n      0x40\n      mstore\n      dup1\n      swap3\n      swap2\n      swap1\n      dup2\n      dup2\n      mstore\n      0x20\n      add\n      dup3\n      dup1\n      sload\n      tag_57\n      swap1\n      tag_56\n      jump\t// in\n    tag_57:\n      dup1\n      iszero\n      tag_58\n      jumpi\n      dup1\n      0x1f\n      lt\n      tag_59\n      jumpi\n      0x0100\n      dup1\n      dup4\n      sload\n      div\n      mul\n      dup4\n      mstore\n      swap2\n      0x20\n      add\n      swap2\n      jump(tag_58)\n    tag_59:\n      dup3\n      add\n      swap2\n      swap1\n      0x00\n      mstore\n      keccak256(0x00, 0x20)\n      swap1\n    tag_60:\n      dup2\n      sload\n      dup2\n      mstore\n      swap1\n      0x01\n      add\n      swap1\n      0x20\n      add\n      dup1\n      dup4\n      gt\n      tag_60\n      jumpi\n      dup3\n      swap1\n      sub\n      0x1f\n      and\n      dup3\n      add\n      swap2\n    tag_58:\n      pop\n      pop\n      pop\n      pop\n      pop\n      swap1\n      dup1\n      0x01\n      add\n      sload\n      swap1\n      dup1\n      0x02\n      add\n      0x00\n      swap1\n      sload\n      swap1\n      0x0100\n      exp\n      swap1\n      div\n      0xff\n      and\n      swap1\n      pop\n      dup4\n      jump\t// out\n        /* \"contracts/hakvotingpemegangsaham.sol\":1510:1717  function mulaiVoting(string memory _judul)... */\n    tag_23:\n        /* \"contracts/hakvotingpemegangsaham.sol\":830:835  owner */\n      0x00\n      0x00\n      swap1\n      sload\n      swap1\n      0x0100\n      exp\n      swap1\n      div\n      0xffffffffffffffffffffffffffffffffffffffff\n      and\n        /* \"contracts/hakvotingpemegangsaham.sol\":816:835  msg.sender == owner */\n      0xffffffffffffffffffffffffffffffffffffffff\n      and\n        /* \"contracts/hakvotingpemegangsaham.sol\":816:826  msg.sender */\n      caller\n        /* \"contracts/hakvotingpemegangsaham.sol\":816:835  msg.sender == owner */\n      0xffffffffffffffffffffffffffffffffffffffff\n      and\n      eq\n        /* \"contracts/hakvotingpemegangsaham.sol\":808:851  require(msg.sender == owner, \"Hanya owner\") */\n      tag_62\n      jumpi\n      mload(0x40)\n      0x08c379a000000000000000000000000000000000000000000000000000000000\n      dup2\n      mstore\n      0x04\n      add\n      tag_63\n      swap1\n      tag_64\n      jump\t// in\n    tag_63:\n      mload(0x40)\n      dup1\n      swap2\n      sub\n      swap1\n      revert\n    tag_62:\n        /* \"contracts/hakvotingpemegangsaham.sol\":1620:1709  Voting(... */\n      mload(0x40)\n      dup1\n      0x80\n      add\n      0x40\n      mstore\n      dup1\n        /* \"contracts/hakvotingpemegangsaham.sol\":1641:1647  _judul */\n      dup3\n        /* \"contracts/hakvotingpemegangsaham.sol\":1620:1709  Voting(... */\n      dup2\n      mstore\n      0x20\n      add\n        /* \"contracts/hakvotingpemegangsaham.sol\":1662:1663  0 */\n      0x00\n        /* \"contracts/hakvotingpemegangsaham.sol\":1620:1709  Voting(... */\n      dup2\n      mstore\n      0x20\n      add\n        /* \"contracts/hakvotingpemegangsaham.sol\":1678:1679  0 */\n      0x00\n        /* \"contracts/hakvotingpemegangsaham.sol\":1620:1709  Voting(... */\n      dup2\n      mstore\n      0x20\n      add\n        /* \"contracts/hakvotingpemegangsaham.sol\":1694:1698  true */\n      0x01\n        /* \"contracts/hakvotingpemegangsaham.sol\":1620:1709  Voting(... */\n      iszero\n      iszero\n      dup2\n      mstore\n      pop\n        /* \"contracts/hakvotingpemegangsaham.sol\":1604:1617  votingSaatIni */\n      0x02\n        /* \"contracts/hakvotingpemegangsaham.sol\":1604:1709  votingSaatIni = Voting(... */\n      0x00\n      dup3\n      add\n      mload\n      dup2\n      0x00\n      add\n      swap1\n      dup2\n      tag_66\n      swap2\n      swap1\n      tag_67\n      jump\t// in\n    tag_66:\n      pop\n      0x20\n      dup3\n      add\n      mload\n      dup2\n      0x01\n      add\n      sstore\n      0x40\n      dup3\n      add\n      mload\n      dup2\n      0x02\n      add\n      sstore\n      0x60\n      dup3\n      add\n      mload\n      dup2\n      0x03\n      add\n      exp(0x0100, 0x00)\n      dup2\n      sload\n      dup2\n      0xff\n      mul\n      not\n      and\n      swap1\n      dup4\n      iszero\n      iszero\n      mul\n      or\n      swap1\n      sstore\n      pop\n      swap1\n      pop\n      pop\n        /* \"contracts/hakvotingpemegangsaham.sol\":1510:1717  function mulaiVoting(string memory _judul)... */\n      pop\n      jump\t// out\n        /* \"contracts/hakvotingpemegangsaham.sol\":2531:2882  function hasilVoting()... */\n    tag_25:\n        /* \"contracts/hakvotingpemegangsaham.sol\":2615:2628  string memory */\n      0x60\n        /* \"contracts/hakvotingpemegangsaham.sol\":2643:2647  uint */\n      0x00\n        /* \"contracts/hakvotingpemegangsaham.sol\":2662:2666  uint */\n      0x00\n        /* \"contracts/hakvotingpemegangsaham.sol\":2681:2685  bool */\n      0x00\n        /* \"contracts/hakvotingpemegangsaham.sol\":2735:2748  votingSaatIni */\n      0x02\n        /* \"contracts/hakvotingpemegangsaham.sol\":2735:2754  votingSaatIni.judul */\n      0x00\n      add\n        /* \"contracts/hakvotingpemegangsaham.sol\":2769:2782  votingSaatIni */\n      0x02\n        /* \"contracts/hakvotingpemegangsaham.sol\":2769:2789  votingSaatIni.setuju */\n      0x01\n      add\n      sload\n        /* \"contracts/hakvotingpemegangsaham.sol\":2804:2817  votingSaatIni */\n      0x02\n        /* \"contracts/hakvotingpemegangsaham.sol\":2804:2829  votingSaatIni.tidakSetuju */\n      dup1\n      add\n      sload\n        /* \"contracts/hakvotingpemegangsaham.sol\":2844:2857  votingSaatIni */\n      0x02\n        /* \"contracts/hakvotingpemegangsaham.sol\":2844:2863  votingSaatIni.aktif */\n      0x03\n      add\n      0x00\n      swap1\n      sload\n      swap1\n      0x0100\n      exp\n      swap1\n      div\n      0xff\n      and\n        /* \"contracts/hakvotingpemegangsaham.sol\":2713:2874  return (... */\n      dup4\n      dup1\n      sload\n      tag_69\n      swap1\n      tag_56\n      jump\t// in\n    tag_69:\n      dup1\n      0x1f\n      add\n      0x20\n      dup1\n      swap2\n      div\n      mul\n      0x20\n      add\n      mload(0x40)\n      swap1\n      dup2\n      add\n      0x40\n      mstore\n      dup1\n      swap3\n      swap2\n      swap1\n      dup2\n      dup2\n      mstore\n      0x20\n      add\n      dup3\n      dup1\n      sload\n      tag_70\n      swap1\n      tag_56\n      jump\t// in\n    tag_70:\n      dup1\n      iszero\n      tag_71\n      jumpi\n      dup1\n      0x1f\n      lt\n      tag_72\n      jumpi\n      0x0100\n      dup1\n      dup4\n      sload\n      div\n      mul\n      dup4\n      mstore\n      swap2\n      0x20\n      add\n      swap2\n      jump(tag_71)\n    tag_72:\n      dup3\n      add\n      swap2\n      swap1\n      0x00\n      mstore\n      keccak256(0x00, 0x20)\n      swap1\n    tag_73:\n      dup2\n      sload\n      dup2\n      mstore\n      swap1\n      0x01\n      add\n      swap1\n      0x20\n      add\n      dup1\n      dup4\n      gt\n      tag_73\n      jumpi\n      dup3\n      swap1\n      sub\n      0x1f\n      and\n      dup3\n      add\n      swap2\n    tag_71:\n      pop\n      pop\n      pop\n      pop\n      pop\n      swap4\n      pop\n      swap4\n      pop\n      swap4\n      pop\n      swap4\n      pop\n      swap4\n      pop\n        /* \"contracts/hakvotingpemegangsaham.sol\":2531:2882  function hasilVoting()... */\n      swap1\n      swap2\n      swap3\n      swap4\n      jump\t// out\n        /* \"contracts/hakvotingpemegangsaham.sol\":2416:2502  function tutupVoting() public onlyOwner {... */\n    tag_29:\n        /* \"contracts/hakvotingpemegangsaham.sol\":830:835  owner */\n      0x00\n      0x00\n      swap1\n      sload\n      swap1\n      0x0100\n      exp\n      swap1\n      div\n      0xffffffffffffffffffffffffffffffffffffffff\n      and\n        /* \"contracts/hakvotingpemegangsaham.sol\":816:835  msg.sender == owner */\n      0xffffffffffffffffffffffffffffffffffffffff\n      and\n        /* \"contracts/hakvotingpemegangsaham.sol\":816:826  msg.sender */\n      caller\n        /* \"contracts/hakvotingpemegangsaham.sol\":816:835  msg.sender == owner */\n      0xffffffffffffffffffffffffffffffffffffffff\n      and\n      eq\n        /* \"contracts/hakvotingpemegangsaham.sol\":808:851  require(msg.sender == owner, \"Hanya owner\") */\n      tag_75\n      jumpi\n      mload(0x40)\n      0x08c379a000000000000000000000000000000000000000000000000000000000\n      dup2\n      mstore\n      0x04\n      add\n      tag_76\n      swap1\n      tag_64\n      jump\t// in\n    tag_76:\n      mload(0x40)\n      dup1\n      swap2\n      sub\n      swap1\n      revert\n    tag_75:\n        /* \"contracts/hakvotingpemegangsaham.sol\":2489:2494  false */\n      0x00\n        /* \"contracts/hakvotingpemegangsaham.sol\":2467:2480  votingSaatIni */\n      0x02\n        /* \"contracts/hakvotingpemegangsaham.sol\":2467:2486  votingSaatIni.aktif */\n      0x03\n      add\n      0x00\n        /* \"contracts/hakvotingpemegangsaham.sol\":2467:2494  votingSaatIni.aktif = false */\n      0x0100\n      exp\n      dup2\n      sload\n      dup2\n      0xff\n      mul\n      not\n      and\n      swap1\n      dup4\n      iszero\n      iszero\n      mul\n      or\n      swap1\n      sstore\n      pop\n        /* \"contracts/hakvotingpemegangsaham.sol\":2416:2502  function tutupVoting() public onlyOwner {... */\n      jump\t// out\n        /* \"contracts/hakvotingpemegangsaham.sol\":305:325  address public owner */\n    tag_31:\n      0x00\n      0x00\n      swap1\n      sload\n      swap1\n      0x0100\n      exp\n      swap1\n      div\n      0xffffffffffffffffffffffffffffffffffffffff\n      and\n      dup2\n      jump\t// out\n        /* \"contracts/hakvotingpemegangsaham.sol\":724:767  mapping(address => bool) public sudahVoting */\n    tag_36:\n      mstore(0x20, 0x06)\n      dup1\n      0x00\n      mstore\n      keccak256(0x00, 0x40)\n      0x00\n      swap2\n      pop\n      sload\n      swap1\n      0x0100\n      exp\n      swap1\n      div\n      0xff\n      and\n      dup2\n      jump\t// out\n        /* \"contracts/hakvotingpemegangsaham.sol\":909:1178  function tambahPemegangSaham(... */\n    tag_42:\n        /* \"contracts/hakvotingpemegangsaham.sol\":830:835  owner */\n      0x00\n      0x00\n      swap1\n      sload\n      swap1\n      0x0100\n      exp\n      swap1\n      div\n      0xffffffffffffffffffffffffffffffffffffffff\n      and\n        /* \"contracts/hakvotingpemegangsaham.sol\":816:835  msg.sender == owner */\n      0xffffffffffffffffffffffffffffffffffffffff\n      and\n        /* \"contracts/hakvotingpemegangsaham.sol\":816:826  msg.sender */\n      caller\n        /* \"contracts/hakvotingpemegangsaham.sol\":816:835  msg.sender == owner */\n      0xffffffffffffffffffffffffffffffffffffffff\n      and\n      eq\n        /* \"contracts/hakvotingpemegangsaham.sol\":808:851  require(msg.sender == owner, \"Hanya owner\") */\n      tag_79\n      jumpi\n      mload(0x40)\n      0x08c379a000000000000000000000000000000000000000000000000000000000\n      dup2\n      mstore\n      0x04\n      add\n      tag_80\n      swap1\n      tag_64\n      jump\t// in\n    tag_80:\n      mload(0x40)\n      dup1\n      swap2\n      sub\n      swap1\n      revert\n    tag_79:\n        /* \"contracts/hakvotingpemegangsaham.sol\":1080:1170  PemegangSaham(... */\n      mload(0x40)\n      dup1\n      0x60\n      add\n      0x40\n      mstore\n      dup1\n        /* \"contracts/hakvotingpemegangsaham.sol\":1108:1113  _nama */\n      dup4\n        /* \"contracts/hakvotingpemegangsaham.sol\":1080:1170  PemegangSaham(... */\n      dup2\n      mstore\n      0x20\n      add\n        /* \"contracts/hakvotingpemegangsaham.sol\":1128:1140  _jumlahSaham */\n      dup3\n        /* \"contracts/hakvotingpemegangsaham.sol\":1080:1170  PemegangSaham(... */\n      dup2\n      mstore\n      0x20\n      add\n        /* \"contracts/hakvotingpemegangsaham.sol\":1155:1159  true */\n      0x01\n        /* \"contracts/hakvotingpemegangsaham.sol\":1080:1170  PemegangSaham(... */\n      iszero\n      iszero\n      dup2\n      mstore\n      pop\n        /* \"contracts/hakvotingpemegangsaham.sol\":1057:1068  daftarSaham */\n      0x01\n        /* \"contracts/hakvotingpemegangsaham.sol\":1057:1077  daftarSaham[_alamat] */\n      0x00\n        /* \"contracts/hakvotingpemegangsaham.sol\":1069:1076  _alamat */\n      dup6\n        /* \"contracts/hakvotingpemegangsaham.sol\":1057:1077  daftarSaham[_alamat] */\n      0xffffffffffffffffffffffffffffffffffffffff\n      and\n      0xffffffffffffffffffffffffffffffffffffffff\n      and\n      dup2\n      mstore\n      0x20\n      add\n      swap1\n      dup2\n      mstore\n      0x20\n      add\n      0x00\n      keccak256\n        /* \"contracts/hakvotingpemegangsaham.sol\":1057:1170  daftarSaham[_alamat] = PemegangSaham(... */\n      0x00\n      dup3\n      add\n      mload\n      dup2\n      0x00\n      add\n      swap1\n      dup2\n      tag_82\n      swap2\n      swap1\n      tag_67\n      jump\t// in\n    tag_82:\n      pop\n      0x20\n      dup3\n      add\n      mload\n      dup2\n      0x01\n      add\n      sstore\n      0x40\n      dup3\n      add\n      mload\n      dup2\n      0x02\n      add\n      exp(0x0100, 0x00)\n      dup2\n      sload\n      dup2\n      0xff\n      mul\n      not\n      and\n      swap1\n      dup4\n      iszero\n      iszero\n      mul\n      or\n      swap1\n      sstore\n      pop\n      swap1\n      pop\n      pop\n        /* \"contracts/hakvotingpemegangsaham.sol\":909:1178  function tambahPemegangSaham(... */\n      pop\n      pop\n      pop\n      jump\t// out\n        /* \"contracts/hakvotingpemegangsaham.sol\":688:715  Voting public votingSaatIni */\n    tag_44:\n      0x02\n      dup1\n      0x00\n      add\n      dup1\n      sload\n      tag_83\n      swap1\n      tag_56\n      jump\t// in\n    tag_83:\n      dup1\n      0x1f\n      add\n      0x20\n      dup1\n      swap2\n      div\n      mul\n      0x20\n      add\n      mload(0x40)\n      swap1\n      dup2\n      add\n      0x40\n      mstore\n      dup1\n      swap3\n      swap2\n      swap1\n      dup2\n      dup2\n      mstore\n      0x20\n      add\n      dup3\n      dup1\n      sload\n      tag_84\n      swap1\n      tag_56\n      jump\t// in\n    tag_84:\n      dup1\n      iszero\n      tag_85\n      jumpi\n      dup1\n      0x1f\n      lt\n      tag_86\n      jumpi\n      0x0100\n      dup1\n      dup4\n      sload\n      div\n      mul\n      dup4\n      mstore\n      swap2\n      0x20\n      add\n      swap2\n      jump(tag_85)\n    tag_86:\n      dup3\n      add\n      swap2\n      swap1\n      0x00\n      mstore\n      keccak256(0x00, 0x20)\n      swap1\n    tag_87:\n      dup2\n      sload\n      dup2\n      mstore\n      swap1\n      0x01\n      add\n      swap1\n      0x20\n      add\n      dup1\n      dup4\n      gt\n      tag_87\n      jumpi\n      dup3\n      swap1\n      sub\n      0x1f\n      and\n      dup3\n      add\n      swap2\n    tag_85:\n      pop\n      pop\n      pop\n      pop\n      pop\n      swap1\n      dup1\n      0x01\n      add\n      sload\n      swap1\n      dup1\n      0x02\n      add\n      sload\n      swap1\n      dup1\n      0x03\n      add\n      0x00\n      swap1\n      sload\n      swap1\n      0x0100\n      exp\n      swap1\n      div\n      0xff\n      and\n      swap1\n      pop\n      dup5\n      jump\t// out\n        /* \"contracts/hakvotingpemegangsaham.sol\":1755:2387  function voting(bool pilihan) public {... */\n    tag_49:\n        /* \"contracts/hakvotingpemegangsaham.sol\":1825:1836  daftarSaham */\n      0x01\n        /* \"contracts/hakvotingpemegangsaham.sol\":1825:1848  daftarSaham[msg.sender] */\n      0x00\n        /* \"contracts/hakvotingpemegangsaham.sol\":1837:1847  msg.sender */\n      caller\n        /* \"contracts/hakvotingpemegangsaham.sol\":1825:1848  daftarSaham[msg.sender] */\n      0xffffffffffffffffffffffffffffffffffffffff\n      and\n      0xffffffffffffffffffffffffffffffffffffffff\n      and\n      dup2\n      mstore\n      0x20\n      add\n      swap1\n      dup2\n      mstore\n      0x20\n      add\n      0x00\n      keccak256\n        /* \"contracts/hakvotingpemegangsaham.sol\":1825:1858  daftarSaham[msg.sender].terdaftar */\n      0x02\n      add\n      0x00\n      swap1\n      sload\n      swap1\n      0x0100\n      exp\n      swap1\n      div\n      0xff\n      and\n        /* \"contracts/hakvotingpemegangsaham.sol\":1803:1906  require(... */\n      tag_89\n      jumpi\n      mload(0x40)\n      0x08c379a000000000000000000000000000000000000000000000000000000000\n      dup2\n      mstore\n      0x04\n      add\n      tag_90\n      swap1\n      tag_91\n      jump\t// in\n    tag_90:\n      mload(0x40)\n      dup1\n      swap2\n      sub\n      swap1\n      revert\n    tag_89:\n        /* \"contracts/hakvotingpemegangsaham.sol\":1942:1953  sudahVoting */\n      0x06\n        /* \"contracts/hakvotingpemegangsaham.sol\":1942:1965  sudahVoting[msg.sender] */\n      0x00\n        /* \"contracts/hakvotingpemegangsaham.sol\":1954:1964  msg.sender */\n      caller\n        /* \"contracts/hakvotingpemegangsaham.sol\":1942:1965  sudahVoting[msg.sender] */\n      0xffffffffffffffffffffffffffffffffffffffff\n      and\n      0xffffffffffffffffffffffffffffffffffffffff\n      and\n      dup2\n      mstore\n      0x20\n      add\n      swap1\n      dup2\n      mstore\n      0x20\n      add\n      0x00\n      keccak256\n      0x00\n      swap1\n      sload\n      swap1\n      0x0100\n      exp\n      swap1\n      div\n      0xff\n      and\n        /* \"contracts/hakvotingpemegangsaham.sol\":1941:1965  !sudahVoting[msg.sender] */\n      iszero\n        /* \"contracts/hakvotingpemegangsaham.sol\":1919:2005  require(... */\n      tag_92\n      jumpi\n      mload(0x40)\n      0x08c379a000000000000000000000000000000000000000000000000000000000\n      dup2\n      mstore\n      0x04\n      add\n      tag_93\n      swap1\n      tag_94\n      jump\t// in\n    tag_93:\n      mload(0x40)\n      dup1\n      swap2\n      sub\n      swap1\n      revert\n    tag_92:\n        /* \"contracts/hakvotingpemegangsaham.sol\":2040:2053  votingSaatIni */\n      0x02\n        /* \"contracts/hakvotingpemegangsaham.sol\":2040:2059  votingSaatIni.aktif */\n      0x03\n      add\n      0x00\n      swap1\n      sload\n      swap1\n      0x0100\n      exp\n      swap1\n      div\n      0xff\n      and\n        /* \"contracts/hakvotingpemegangsaham.sol\":2018:2105  require(... */\n      tag_95\n      jumpi\n      mload(0x40)\n      0x08c379a000000000000000000000000000000000000000000000000000000000\n      dup2\n      mstore\n      0x04\n      add\n      tag_96\n      swap1\n      tag_97\n      jump\t// in\n    tag_96:\n      mload(0x40)\n      dup1\n      swap2\n      sub\n      swap1\n      revert\n    tag_95:\n        /* \"contracts/hakvotingpemegangsaham.sol\":2118:2131  uint hakSuara */\n      0x00\n        /* \"contracts/hakvotingpemegangsaham.sol\":2147:2158  daftarSaham */\n      0x01\n        /* \"contracts/hakvotingpemegangsaham.sol\":2147:2170  daftarSaham[msg.sender] */\n      0x00\n        /* \"contracts/hakvotingpemegangsaham.sol\":2159:2169  msg.sender */\n      caller\n        /* \"contracts/hakvotingpemegangsaham.sol\":2147:2170  daftarSaham[msg.sender] */\n      0xffffffffffffffffffffffffffffffffffffffff\n      and\n      0xffffffffffffffffffffffffffffffffffffffff\n      and\n      dup2\n      mstore\n      0x20\n      add\n      swap1\n      dup2\n      mstore\n      0x20\n      add\n      0x00\n      keccak256\n        /* \"contracts/hakvotingpemegangsaham.sol\":2147:2182  daftarSaham[msg.sender].jumlahSaham */\n      0x01\n      add\n      sload\n        /* \"contracts/hakvotingpemegangsaham.sol\":2118:2182  uint hakSuara =... */\n      swap1\n      pop\n        /* \"contracts/hakvotingpemegangsaham.sol\":2199:2206  pilihan */\n      dup2\n        /* \"contracts/hakvotingpemegangsaham.sol\":2195:2337  if (pilihan) {... */\n      iszero\n      tag_98\n      jumpi\n        /* \"contracts/hakvotingpemegangsaham.sol\":2247:2255  hakSuara */\n      dup1\n        /* \"contracts/hakvotingpemegangsaham.sol\":2223:2236  votingSaatIni */\n      0x02\n        /* \"contracts/hakvotingpemegangsaham.sol\":2223:2243  votingSaatIni.setuju */\n      0x01\n      add\n      0x00\n        /* \"contracts/hakvotingpemegangsaham.sol\":2223:2255  votingSaatIni.setuju += hakSuara */\n      dup3\n      dup3\n      sload\n      tag_99\n      swap2\n      swap1\n      tag_100\n      jump\t// in\n    tag_99:\n      swap3\n      pop\n      pop\n      dup2\n      swap1\n      sstore\n      pop\n        /* \"contracts/hakvotingpemegangsaham.sol\":2195:2337  if (pilihan) {... */\n      jump(tag_101)\n    tag_98:\n        /* \"contracts/hakvotingpemegangsaham.sol\":2317:2325  hakSuara */\n      dup1\n        /* \"contracts/hakvotingpemegangsaham.sol\":2288:2301  votingSaatIni */\n      0x02\n        /* \"contracts/hakvotingpemegangsaham.sol\":2288:2313  votingSaatIni.tidakSetuju */\n      dup1\n      add\n      0x00\n        /* \"contracts/hakvotingpemegangsaham.sol\":2288:2325  votingSaatIni.tidakSetuju += hakSuara */\n      dup3\n      dup3\n      sload\n      tag_102\n      swap2\n      swap1\n      tag_100\n      jump\t// in\n    tag_102:\n      swap3\n      pop\n      pop\n      dup2\n      swap1\n      sstore\n      pop\n        /* \"contracts/hakvotingpemegangsaham.sol\":2195:2337  if (pilihan) {... */\n    tag_101:\n        /* \"contracts/hakvotingpemegangsaham.sol\":2375:2379  true */\n      0x01\n        /* \"contracts/hakvotingpemegangsaham.sol\":2349:2360  sudahVoting */\n      0x06\n        /* \"contracts/hakvotingpemegangsaham.sol\":2349:2372  sudahVoting[msg.sender] */\n      0x00\n        /* \"contracts/hakvotingpemegangsaham.sol\":2361:2371  msg.sender */\n      caller\n        /* \"contracts/hakvotingpemegangsaham.sol\":2349:2372  sudahVoting[msg.sender] */\n      0xffffffffffffffffffffffffffffffffffffffff\n      and\n      0xffffffffffffffffffffffffffffffffffffffff\n      and\n      dup2\n      mstore\n      0x20\n      add\n      swap1\n      dup2\n      mstore\n      0x20\n      add\n      0x00\n      keccak256\n      0x00\n        /* \"contracts/hakvotingpemegangsaham.sol\":2349:2379  sudahVoting[msg.sender] = true */\n      0x0100\n      exp\n      dup2\n      sload\n      dup2\n      0xff\n      mul\n      not\n      and\n      swap1\n      dup4\n      iszero\n      iszero\n      mul\n      or\n      swap1\n      sstore\n      pop\n        /* \"contracts/hakvotingpemegangsaham.sol\":1792:2387  {... */\n      pop\n        /* \"contracts/hakvotingpemegangsaham.sol\":1755:2387  function voting(bool pilihan) public {... */\n      pop\n      jump\t// out\n        /* \"contracts/hakvotingpemegangsaham.sol\":1211:1476  function lihatHakVoting(address _alamat)... */\n    tag_52:\n        /* \"contracts/hakvotingpemegangsaham.sol\":1299:1303  uint */\n      0x00\n        /* \"contracts/hakvotingpemegangsaham.sol\":1343:1354  daftarSaham */\n      0x01\n        /* \"contracts/hakvotingpemegangsaham.sol\":1343:1363  daftarSaham[_alamat] */\n      0x00\n        /* \"contracts/hakvotingpemegangsaham.sol\":1355:1362  _alamat */\n      dup4\n        /* \"contracts/hakvotingpemegangsaham.sol\":1343:1363  daftarSaham[_alamat] */\n      0xffffffffffffffffffffffffffffffffffffffff\n      and\n      0xffffffffffffffffffffffffffffffffffffffff\n      and\n      dup2\n      mstore\n      0x20\n      add\n      swap1\n      dup2\n      mstore\n      0x20\n      add\n      0x00\n      keccak256\n        /* \"contracts/hakvotingpemegangsaham.sol\":1343:1373  daftarSaham[_alamat].terdaftar */\n      0x02\n      add\n      0x00\n      swap1\n      sload\n      swap1\n      0x0100\n      exp\n      swap1\n      div\n      0xff\n      and\n        /* \"contracts/hakvotingpemegangsaham.sol\":1321:1416  require(... */\n      tag_104\n      jumpi\n      mload(0x40)\n      0x08c379a000000000000000000000000000000000000000000000000000000000\n      dup2\n      mstore\n      0x04\n      add\n      tag_105\n      swap1\n      tag_106\n      jump\t// in\n    tag_105:\n      mload(0x40)\n      dup1\n      swap2\n      sub\n      swap1\n      revert\n    tag_104:\n        /* \"contracts/hakvotingpemegangsaham.sol\":1436:1447  daftarSaham */\n      0x01\n        /* \"contracts/hakvotingpemegangsaham.sol\":1436:1456  daftarSaham[_alamat] */\n      0x00\n        /* \"contracts/hakvotingpemegangsaham.sol\":1448:1455  _alamat */\n      dup4\n        /* \"contracts/hakvotingpemegangsaham.sol\":1436:1456  daftarSaham[_alamat] */\n      0xffffffffffffffffffffffffffffffffffffffff\n      and\n      0xffffffffffffffffffffffffffffffffffffffff\n      and\n      dup2\n      mstore\n      0x20\n      add\n      swap1\n      dup2\n      mstore\n      0x20\n      add\n      0x00\n      keccak256\n        /* \"contracts/hakvotingpemegangsaham.sol\":1436:1468  daftarSaham[_alamat].jumlahSaham */\n      0x01\n      add\n      sload\n        /* \"contracts/hakvotingpemegangsaham.sol\":1429:1468  return daftarSaham[_alamat].jumlahSaham */\n      swap1\n      pop\n        /* \"contracts/hakvotingpemegangsaham.sol\":1211:1476  function lihatHakVoting(address _alamat)... */\n      swap2\n      swap1\n      pop\n      jump\t// out\n        /* \"#utility.yul\":7:82   */\n    tag_107:\n        /* \"#utility.yul\":40:46   */\n      0x00\n        /* \"#utility.yul\":73:75   */\n      0x40\n        /* \"#utility.yul\":67:76   */\n      mload\n        /* \"#utility.yul\":57:76   */\n      swap1\n      pop\n        /* \"#utility.yul\":7:82   */\n      swap1\n      jump\t// out\n        /* \"#utility.yul\":88:205   */\n    tag_108:\n        /* \"#utility.yul\":197:198   */\n      0x00\n        /* \"#utility.yul\":194:195   */\n      0x00\n        /* \"#utility.yul\":187:199   */\n      revert\n        /* \"#utility.yul\":211:328   */\n    tag_109:\n        /* \"#utility.yul\":320:321   */\n      0x00\n        /* \"#utility.yul\":317:318   */\n      0x00\n        /* \"#utility.yul\":310:322   */\n      revert\n        /* \"#utility.yul\":334:460   */\n    tag_110:\n        /* \"#utility.yul\":371:378   */\n      0x00\n        /* \"#utility.yul\":411:453   */\n      0xffffffffffffffffffffffffffffffffffffffff\n        /* \"#utility.yul\":404:409   */\n      dup3\n        /* \"#utility.yul\":400:454   */\n      and\n        /* \"#utility.yul\":389:454   */\n      swap1\n      pop\n        /* \"#utility.yul\":334:460   */\n      swap2\n      swap1\n      pop\n      jump\t// out\n        /* \"#utility.yul\":466:562   */\n    tag_111:\n        /* \"#utility.yul\":503:510   */\n      0x00\n        /* \"#utility.yul\":532:556   */\n      tag_170\n        /* \"#utility.yul\":550:555   */\n      dup3\n        /* \"#utility.yul\":532:556   */\n      tag_110\n      jump\t// in\n    tag_170:\n        /* \"#utility.yul\":521:556   */\n      swap1\n      pop\n        /* \"#utility.yul\":466:562   */\n      swap2\n      swap1\n      pop\n      jump\t// out\n        /* \"#utility.yul\":568:690   */\n    tag_112:\n        /* \"#utility.yul\":641:665   */\n      tag_172\n        /* \"#utility.yul\":659:664   */\n      dup2\n        /* \"#utility.yul\":641:665   */\n      tag_111\n      jump\t// in\n    tag_172:\n        /* \"#utility.yul\":634:639   */\n      dup2\n        /* \"#utility.yul\":631:666   */\n      eq\n        /* \"#utility.yul\":621:684   */\n      tag_173\n      jumpi\n        /* \"#utility.yul\":680:681   */\n      0x00\n        /* \"#utility.yul\":677:678   */\n      0x00\n        /* \"#utility.yul\":670:682   */\n      revert\n        /* \"#utility.yul\":621:684   */\n    tag_173:\n        /* \"#utility.yul\":568:690   */\n      pop\n      jump\t// out\n        /* \"#utility.yul\":696:835   */\n    tag_113:\n        /* \"#utility.yul\":742:747   */\n      0x00\n        /* \"#utility.yul\":780:786   */\n      dup2\n        /* \"#utility.yul\":767:787   */\n      calldataload\n        /* \"#utility.yul\":758:787   */\n      swap1\n      pop\n        /* \"#utility.yul\":796:829   */\n      tag_175\n        /* \"#utility.yul\":823:828   */\n      dup2\n        /* \"#utility.yul\":796:829   */\n      tag_112\n      jump\t// in\n    tag_175:\n        /* \"#utility.yul\":696:835   */\n      swap3\n      swap2\n      pop\n      pop\n      jump\t// out\n        /* \"#utility.yul\":841:1170   */\n    tag_16:\n        /* \"#utility.yul\":900:906   */\n      0x00\n        /* \"#utility.yul\":949:951   */\n      0x20\n        /* \"#utility.yul\":937:946   */\n      dup3\n        /* \"#utility.yul\":928:935   */\n      dup5\n        /* \"#utility.yul\":924:947   */\n      sub\n        /* \"#utility.yul\":920:952   */\n      slt\n        /* \"#utility.yul\":917:1036   */\n      iszero\n      tag_177\n      jumpi\n        /* \"#utility.yul\":955:1034   */\n      tag_178\n      tag_108\n      jump\t// in\n    tag_178:\n        /* \"#utility.yul\":917:1036   */\n    tag_177:\n        /* \"#utility.yul\":1075:1076   */\n      0x00\n        /* \"#utility.yul\":1100:1153   */\n      tag_179\n        /* \"#utility.yul\":1145:1152   */\n      dup5\n        /* \"#utility.yul\":1136:1142   */\n      dup3\n        /* \"#utility.yul\":1125:1134   */\n      dup6\n        /* \"#utility.yul\":1121:1143   */\n      add\n        /* \"#utility.yul\":1100:1153   */\n      tag_113\n      jump\t// in\n    tag_179:\n        /* \"#utility.yul\":1090:1153   */\n      swap2\n      pop\n        /* \"#utility.yul\":1046:1163   */\n      pop\n        /* \"#utility.yul\":841:1170   */\n      swap3\n      swap2\n      pop\n      pop\n      jump\t// out\n        /* \"#utility.yul\":1176:1275   */\n    tag_114:\n        /* \"#utility.yul\":1228:1234   */\n      0x00\n        /* \"#utility.yul\":1262:1267   */\n      dup2\n        /* \"#utility.yul\":1256:1268   */\n      mload\n        /* \"#utility.yul\":1246:1268   */\n      swap1\n      pop\n        /* \"#utility.yul\":1176:1275   */\n      swap2\n      swap1\n      pop\n      jump\t// out\n        /* \"#utility.yul\":1281:1450   */\n    tag_115:\n        /* \"#utility.yul\":1365:1376   */\n      0x00\n        /* \"#utility.yul\":1399:1405   */\n      dup3\n        /* \"#utility.yul\":1394:1397   */\n      dup3\n        /* \"#utility.yul\":1387:1406   */\n      mstore\n        /* \"#utility.yul\":1439:1443   */\n      0x20\n        /* \"#utility.yul\":1434:1437   */\n      dup3\n        /* \"#utility.yul\":1430:1444   */\n      add\n        /* \"#utility.yul\":1415:1444   */\n      swap1\n      pop\n        /* \"#utility.yul\":1281:1450   */\n      swap3\n      swap2\n      pop\n      pop\n      jump\t// out\n        /* \"#utility.yul\":1456:1595   */\n    tag_116:\n        /* \"#utility.yul\":1545:1551   */\n      dup3\n        /* \"#utility.yul\":1540:1543   */\n      dup2\n        /* \"#utility.yul\":1535:1538   */\n      dup4\n        /* \"#utility.yul\":1529:1552   */\n      mcopy\n        /* \"#utility.yul\":1586:1587   */\n      0x00\n        /* \"#utility.yul\":1577:1583   */\n      dup4\n        /* \"#utility.yul\":1572:1575   */\n      dup4\n        /* \"#utility.yul\":1568:1584   */\n      add\n        /* \"#utility.yul\":1561:1588   */\n      mstore\n        /* \"#utility.yul\":1456:1595   */\n      pop\n      pop\n      pop\n      jump\t// out\n        /* \"#utility.yul\":1601:1703   */\n    tag_117:\n        /* \"#utility.yul\":1642:1648   */\n      0x00\n        /* \"#utility.yul\":1693:1695   */\n      0x1f\n        /* \"#utility.yul\":1689:1696   */\n      not\n        /* \"#utility.yul\":1684:1686   */\n      0x1f\n        /* \"#utility.yul\":1677:1682   */\n      dup4\n        /* \"#utility.yul\":1673:1687   */\n      add\n        /* \"#utility.yul\":1669:1697   */\n      and\n        /* \"#utility.yul\":1659:1697   */\n      swap1\n      pop\n        /* \"#utility.yul\":1601:1703   */\n      swap2\n      swap1\n      pop\n      jump\t// out\n        /* \"#utility.yul\":1709:2086   */\n    tag_118:\n        /* \"#utility.yul\":1797:1800   */\n      0x00\n        /* \"#utility.yul\":1825:1864   */\n      tag_185\n        /* \"#utility.yul\":1858:1863   */\n      dup3\n        /* \"#utility.yul\":1825:1864   */\n      tag_114\n      jump\t// in\n    tag_185:\n        /* \"#utility.yul\":1880:1951   */\n      tag_186\n        /* \"#utility.yul\":1944:1950   */\n      dup2\n        /* \"#utility.yul\":1939:1942   */\n      dup6\n        /* \"#utility.yul\":1880:1951   */\n      tag_115\n      jump\t// in\n    tag_186:\n        /* \"#utility.yul\":1873:1951   */\n      swap4\n      pop\n        /* \"#utility.yul\":1960:2025   */\n      tag_187\n        /* \"#utility.yul\":2018:2024   */\n      dup2\n        /* \"#utility.yul\":2013:2016   */\n      dup6\n        /* \"#utility.yul\":2006:2010   */\n      0x20\n        /* \"#utility.yul\":1999:2004   */\n      dup7\n        /* \"#utility.yul\":1995:2011   */\n      add\n        /* \"#utility.yul\":1960:2025   */\n      tag_116\n      jump\t// in\n    tag_187:\n        /* \"#utility.yul\":2050:2079   */\n      tag_188\n        /* \"#utility.yul\":2072:2078   */\n      dup2\n        /* \"#utility.yul\":2050:2079   */\n      tag_117\n      jump\t// in\n    tag_188:\n        /* \"#utility.yul\":2045:2048   */\n      dup5\n        /* \"#utility.yul\":2041:2080   */\n      add\n        /* \"#utility.yul\":2034:2080   */\n      swap2\n      pop\n        /* \"#utility.yul\":1801:2086   */\n      pop\n        /* \"#utility.yul\":1709:2086   */\n      swap3\n      swap2\n      pop\n      pop\n      jump\t// out\n        /* \"#utility.yul\":2092:2169   */\n    tag_119:\n        /* \"#utility.yul\":2129:2136   */\n      0x00\n        /* \"#utility.yul\":2158:2163   */\n      dup2\n        /* \"#utility.yul\":2147:2163   */\n      swap1\n      pop\n        /* \"#utility.yul\":2092:2169   */\n      swap2\n      swap1\n      pop\n      jump\t// out\n        /* \"#utility.yul\":2175:2293   */\n    tag_120:\n        /* \"#utility.yul\":2262:2286   */\n      tag_191\n        /* \"#utility.yul\":2280:2285   */\n      dup2\n        /* \"#utility.yul\":2262:2286   */\n      tag_119\n      jump\t// in\n    tag_191:\n        /* \"#utility.yul\":2257:2260   */\n      dup3\n        /* \"#utility.yul\":2250:2287   */\n      mstore\n        /* \"#utility.yul\":2175:2293   */\n      pop\n      pop\n      jump\t// out\n        /* \"#utility.yul\":2299:2389   */\n    tag_121:\n        /* \"#utility.yul\":2333:2340   */\n      0x00\n        /* \"#utility.yul\":2376:2381   */\n      dup2\n        /* \"#utility.yul\":2369:2382   */\n      iszero\n        /* \"#utility.yul\":2362:2383   */\n      iszero\n        /* \"#utility.yul\":2351:2383   */\n      swap1\n      pop\n        /* \"#utility.yul\":2299:2389   */\n      swap2\n      swap1\n      pop\n      jump\t// out\n        /* \"#utility.yul\":2395:2504   */\n    tag_122:\n        /* \"#utility.yul\":2476:2497   */\n      tag_194\n        /* \"#utility.yul\":2491:2496   */\n      dup2\n        /* \"#utility.yul\":2476:2497   */\n      tag_121\n      jump\t// in\n    tag_194:\n        /* \"#utility.yul\":2471:2474   */\n      dup3\n        /* \"#utility.yul\":2464:2498   */\n      mstore\n        /* \"#utility.yul\":2395:2504   */\n      pop\n      pop\n      jump\t// out\n        /* \"#utility.yul\":2510:3031   */\n    tag_19:\n        /* \"#utility.yul\":2673:2677   */\n      0x00\n        /* \"#utility.yul\":2711:2713   */\n      0x60\n        /* \"#utility.yul\":2700:2709   */\n      dup3\n        /* \"#utility.yul\":2696:2714   */\n      add\n        /* \"#utility.yul\":2688:2714   */\n      swap1\n      pop\n        /* \"#utility.yul\":2760:2769   */\n      dup2\n        /* \"#utility.yul\":2754:2758   */\n      dup2\n        /* \"#utility.yul\":2750:2770   */\n      sub\n        /* \"#utility.yul\":2746:2747   */\n      0x00\n        /* \"#utility.yul\":2735:2744   */\n      dup4\n        /* \"#utility.yul\":2731:2748   */\n      add\n        /* \"#utility.yul\":2724:2771   */\n      mstore\n        /* \"#utility.yul\":2788:2866   */\n      tag_196\n        /* \"#utility.yul\":2861:2865   */\n      dup2\n        /* \"#utility.yul\":2852:2858   */\n      dup7\n        /* \"#utility.yul\":2788:2866   */\n      tag_118\n      jump\t// in\n    tag_196:\n        /* \"#utility.yul\":2780:2866   */\n      swap1\n      pop\n        /* \"#utility.yul\":2876:2948   */\n      tag_197\n        /* \"#utility.yul\":2944:2946   */\n      0x20\n        /* \"#utility.yul\":2933:2942   */\n      dup4\n        /* \"#utility.yul\":2929:2947   */\n      add\n        /* \"#utility.yul\":2920:2926   */\n      dup6\n        /* \"#utility.yul\":2876:2948   */\n      tag_120\n      jump\t// in\n    tag_197:\n        /* \"#utility.yul\":2958:3024   */\n      tag_198\n        /* \"#utility.yul\":3020:3022   */\n      0x40\n        /* \"#utility.yul\":3009:3018   */\n      dup4\n        /* \"#utility.yul\":3005:3023   */\n      add\n        /* \"#utility.yul\":2996:3002   */\n      dup5\n        /* \"#utility.yul\":2958:3024   */\n      tag_122\n      jump\t// in\n    tag_198:\n        /* \"#utility.yul\":2510:3031   */\n      swap5\n      swap4\n      pop\n      pop\n      pop\n      pop\n      jump\t// out\n        /* \"#utility.yul\":3037:3154   */\n    tag_123:\n        /* \"#utility.yul\":3146:3147   */\n      0x00\n        /* \"#utility.yul\":3143:3144   */\n      0x00\n        /* \"#utility.yul\":3136:3148   */\n      revert\n        /* \"#utility.yul\":3160:3277   */\n    tag_124:\n        /* \"#utility.yul\":3269:3270   */\n      0x00\n        /* \"#utility.yul\":3266:3267   */\n      0x00\n        /* \"#utility.yul\":3259:3271   */\n      revert\n        /* \"#utility.yul\":3283:3463   */\n    tag_125:\n        /* \"#utility.yul\":3331:3408   */\n      0x4e487b7100000000000000000000000000000000000000000000000000000000\n        /* \"#utility.yul\":3328:3329   */\n      0x00\n        /* \"#utility.yul\":3321:3409   */\n      mstore\n        /* \"#utility.yul\":3428:3432   */\n      0x41\n        /* \"#utility.yul\":3425:3426   */\n      0x04\n        /* \"#utility.yul\":3418:3433   */\n      mstore\n        /* \"#utility.yul\":3452:3456   */\n      0x24\n        /* \"#utility.yul\":3449:3450   */\n      0x00\n        /* \"#utility.yul\":3442:3457   */\n      revert\n        /* \"#utility.yul\":3469:3750   */\n    tag_126:\n        /* \"#utility.yul\":3552:3579   */\n      tag_203\n        /* \"#utility.yul\":3574:3578   */\n      dup3\n        /* \"#utility.yul\":3552:3579   */\n      tag_117\n      jump\t// in\n    tag_203:\n        /* \"#utility.yul\":3544:3550   */\n      dup2\n        /* \"#utility.yul\":3540:3580   */\n      add\n        /* \"#utility.yul\":3682:3688   */\n      dup2\n        /* \"#utility.yul\":3670:3680   */\n      dup2\n        /* \"#utility.yul\":3667:3689   */\n      lt\n        /* \"#utility.yul\":3646:3664   */\n      0xffffffffffffffff\n        /* \"#utility.yul\":3634:3644   */\n      dup3\n        /* \"#utility.yul\":3631:3665   */\n      gt\n        /* \"#utility.yul\":3628:3690   */\n      or\n        /* \"#utility.yul\":3625:3713   */\n      iszero\n      tag_204\n      jumpi\n        /* \"#utility.yul\":3693:3711   */\n      tag_205\n      tag_125\n      jump\t// in\n    tag_205:\n        /* \"#utility.yul\":3625:3713   */\n    tag_204:\n        /* \"#utility.yul\":3733:3743   */\n      dup1\n        /* \"#utility.yul\":3729:3731   */\n      0x40\n        /* \"#utility.yul\":3722:3744   */\n      mstore\n        /* \"#utility.yul\":3512:3750   */\n      pop\n        /* \"#utility.yul\":3469:3750   */\n      pop\n      pop\n      jump\t// out\n        /* \"#utility.yul\":3756:3885   */\n    tag_127:\n        /* \"#utility.yul\":3790:3796   */\n      0x00\n        /* \"#utility.yul\":3817:3837   */\n      tag_207\n      tag_107\n      jump\t// in\n    tag_207:\n        /* \"#utility.yul\":3807:3837   */\n      swap1\n      pop\n        /* \"#utility.yul\":3846:3879   */\n      tag_208\n        /* \"#utility.yul\":3874:3878   */\n      dup3\n        /* \"#utility.yul\":3866:3872   */\n      dup3\n        /* \"#utility.yul\":3846:3879   */\n      tag_126\n      jump\t// in\n    tag_208:\n        /* \"#utility.yul\":3756:3885   */\n      swap2\n      swap1\n      pop\n      jump\t// out\n        /* \"#utility.yul\":3891:4199   */\n    tag_128:\n        /* \"#utility.yul\":3953:3957   */\n      0x00\n        /* \"#utility.yul\":4043:4061   */\n      0xffffffffffffffff\n        /* \"#utility.yul\":4035:4041   */\n      dup3\n        /* \"#utility.yul\":4032:4062   */\n      gt\n        /* \"#utility.yul\":4029:4085   */\n      iszero\n      tag_210\n      jumpi\n        /* \"#utility.yul\":4065:4083   */\n      tag_211\n      tag_125\n      jump\t// in\n    tag_211:\n        /* \"#utility.yul\":4029:4085   */\n    tag_210:\n        /* \"#utility.yul\":4103:4132   */\n      tag_212\n        /* \"#utility.yul\":4125:4131   */\n      dup3\n        /* \"#utility.yul\":4103:4132   */\n      tag_117\n      jump\t// in\n    tag_212:\n        /* \"#utility.yul\":4095:4132   */\n      swap1\n      pop\n        /* \"#utility.yul\":4187:4191   */\n      0x20\n        /* \"#utility.yul\":4181:4185   */\n      dup2\n        /* \"#utility.yul\":4177:4192   */\n      add\n        /* \"#utility.yul\":4169:4192   */\n      swap1\n      pop\n        /* \"#utility.yul\":3891:4199   */\n      swap2\n      swap1\n      pop\n      jump\t// out\n        /* \"#utility.yul\":4205:4353   */\n    tag_129:\n        /* \"#utility.yul\":4303:4309   */\n      dup3\n        /* \"#utility.yul\":4298:4301   */\n      dup2\n        /* \"#utility.yul\":4293:4296   */\n      dup4\n        /* \"#utility.yul\":4280:4310   */\n      calldatacopy\n        /* \"#utility.yul\":4344:4345   */\n      0x00\n        /* \"#utility.yul\":4335:4341   */\n      dup4\n        /* \"#utility.yul\":4330:4333   */\n      dup4\n        /* \"#utility.yul\":4326:4342   */\n      add\n        /* \"#utility.yul\":4319:4346   */\n      mstore\n        /* \"#utility.yul\":4205:4353   */\n      pop\n      pop\n      pop\n      jump\t// out\n        /* \"#utility.yul\":4359:4784   */\n    tag_130:\n        /* \"#utility.yul\":4437:4442   */\n      0x00\n        /* \"#utility.yul\":4462:4528   */\n      tag_215\n        /* \"#utility.yul\":4478:4527   */\n      tag_216\n        /* \"#utility.yul\":4520:4526   */\n      dup5\n        /* \"#utility.yul\":4478:4527   */\n      tag_128\n      jump\t// in\n    tag_216:\n        /* \"#utility.yul\":4462:4528   */\n      tag_127\n      jump\t// in\n    tag_215:\n        /* \"#utility.yul\":4453:4528   */\n      swap1\n      pop\n        /* \"#utility.yul\":4551:4557   */\n      dup3\n        /* \"#utility.yul\":4544:4549   */\n      dup2\n        /* \"#utility.yul\":4537:4558   */\n      mstore\n        /* \"#utility.yul\":4589:4593   */\n      0x20\n        /* \"#utility.yul\":4582:4587   */\n      dup2\n        /* \"#utility.yul\":4578:4594   */\n      add\n        /* \"#utility.yul\":4627:4630   */\n      dup5\n        /* \"#utility.yul\":4618:4624   */\n      dup5\n        /* \"#utility.yul\":4613:4616   */\n      dup5\n        /* \"#utility.yul\":4609:4625   */\n      add\n        /* \"#utility.yul\":4606:4631   */\n      gt\n        /* \"#utility.yul\":4603:4715   */\n      iszero\n      tag_217\n      jumpi\n        /* \"#utility.yul\":4634:4713   */\n      tag_218\n      tag_124\n      jump\t// in\n    tag_218:\n        /* \"#utility.yul\":4603:4715   */\n    tag_217:\n        /* \"#utility.yul\":4724:4778   */\n      tag_219\n        /* \"#utility.yul\":4771:4777   */\n      dup5\n        /* \"#utility.yul\":4766:4769   */\n      dup3\n        /* \"#utility.yul\":4761:4764   */\n      dup6\n        /* \"#utility.yul\":4724:4778   */\n      tag_129\n      jump\t// in\n    tag_219:\n        /* \"#utility.yul\":4443:4784   */\n      pop\n        /* \"#utility.yul\":4359:4784   */\n      swap4\n      swap3\n      pop\n      pop\n      pop\n      jump\t// out\n        /* \"#utility.yul\":4804:5144   */\n    tag_131:\n        /* \"#utility.yul\":4860:4865   */\n      0x00\n        /* \"#utility.yul\":4909:4912   */\n      dup3\n        /* \"#utility.yul\":4902:4906   */\n      0x1f\n        /* \"#utility.yul\":4894:4900   */\n      dup4\n        /* \"#utility.yul\":4890:4907   */\n      add\n        /* \"#utility.yul\":4886:4913   */\n      slt\n        /* \"#utility.yul\":4876:4998   */\n      tag_221\n      jumpi\n        /* \"#utility.yul\":4917:4996   */\n      tag_222\n      tag_123\n      jump\t// in\n    tag_222:\n        /* \"#utility.yul\":4876:4998   */\n    tag_221:\n        /* \"#utility.yul\":5034:5040   */\n      dup2\n        /* \"#utility.yul\":5021:5041   */\n      calldataload\n        /* \"#utility.yul\":5059:5138   */\n      tag_223\n        /* \"#utility.yul\":5134:5137   */\n      dup5\n        /* \"#utility.yul\":5126:5132   */\n      dup3\n        /* \"#utility.yul\":5119:5123   */\n      0x20\n        /* \"#utility.yul\":5111:5117   */\n      dup7\n        /* \"#utility.yul\":5107:5124   */\n      add\n        /* \"#utility.yul\":5059:5138   */\n      tag_130\n      jump\t// in\n    tag_223:\n        /* \"#utility.yul\":5050:5138   */\n      swap2\n      pop\n        /* \"#utility.yul\":4866:5144   */\n      pop\n        /* \"#utility.yul\":4804:5144   */\n      swap3\n      swap2\n      pop\n      pop\n      jump\t// out\n        /* \"#utility.yul\":5150:5659   */\n    tag_22:\n        /* \"#utility.yul\":5219:5225   */\n      0x00\n        /* \"#utility.yul\":5268:5270   */\n      0x20\n        /* \"#utility.yul\":5256:5265   */\n      dup3\n        /* \"#utility.yul\":5247:5254   */\n      dup5\n        /* \"#utility.yul\":5243:5266   */\n      sub\n        /* \"#utility.yul\":5239:5271   */\n      slt\n        /* \"#utility.yul\":5236:5355   */\n      iszero\n      tag_225\n      jumpi\n        /* \"#utility.yul\":5274:5353   */\n      tag_226\n      tag_108\n      jump\t// in\n    tag_226:\n        /* \"#utility.yul\":5236:5355   */\n    tag_225:\n        /* \"#utility.yul\":5422:5423   */\n      0x00\n        /* \"#utility.yul\":5411:5420   */\n      dup3\n        /* \"#utility.yul\":5407:5424   */\n      add\n        /* \"#utility.yul\":5394:5425   */\n      calldataload\n        /* \"#utility.yul\":5452:5470   */\n      0xffffffffffffffff\n        /* \"#utility.yul\":5444:5450   */\n      dup2\n        /* \"#utility.yul\":5441:5471   */\n      gt\n        /* \"#utility.yul\":5438:5555   */\n      iszero\n      tag_227\n      jumpi\n        /* \"#utility.yul\":5474:5553   */\n      tag_228\n      tag_109\n      jump\t// in\n    tag_228:\n        /* \"#utility.yul\":5438:5555   */\n    tag_227:\n        /* \"#utility.yul\":5579:5642   */\n      tag_229\n        /* \"#utility.yul\":5634:5641   */\n      dup5\n        /* \"#utility.yul\":5625:5631   */\n      dup3\n        /* \"#utility.yul\":5614:5623   */\n      dup6\n        /* \"#utility.yul\":5610:5632   */\n      add\n        /* \"#utility.yul\":5579:5642   */\n      tag_131\n      jump\t// in\n    tag_229:\n        /* \"#utility.yul\":5569:5642   */\n      swap2\n      pop\n        /* \"#utility.yul\":5365:5652   */\n      pop\n        /* \"#utility.yul\":5150:5659   */\n      swap3\n      swap2\n      pop\n      pop\n      jump\t// out\n        /* \"#utility.yul\":5665:6297   */\n    tag_27:\n        /* \"#utility.yul\":5856:5860   */\n      0x00\n        /* \"#utility.yul\":5894:5897   */\n      0x80\n        /* \"#utility.yul\":5883:5892   */\n      dup3\n        /* \"#utility.yul\":5879:5898   */\n      add\n        /* \"#utility.yul\":5871:5898   */\n      swap1\n      pop\n        /* \"#utility.yul\":5944:5953   */\n      dup2\n        /* \"#utility.yul\":5938:5942   */\n      dup2\n        /* \"#utility.yul\":5934:5954   */\n      sub\n        /* \"#utility.yul\":5930:5931   */\n      0x00\n        /* \"#utility.yul\":5919:5928   */\n      dup4\n        /* \"#utility.yul\":5915:5932   */\n      add\n        /* \"#utility.yul\":5908:5955   */\n      mstore\n        /* \"#utility.yul\":5972:6050   */\n      tag_231\n        /* \"#utility.yul\":6045:6049   */\n      dup2\n        /* \"#utility.yul\":6036:6042   */\n      dup8\n        /* \"#utility.yul\":5972:6050   */\n      tag_118\n      jump\t// in\n    tag_231:\n        /* \"#utility.yul\":5964:6050   */\n      swap1\n      pop\n        /* \"#utility.yul\":6060:6132   */\n      tag_232\n        /* \"#utility.yul\":6128:6130   */\n      0x20\n        /* \"#utility.yul\":6117:6126   */\n      dup4\n        /* \"#utility.yul\":6113:6131   */\n      add\n        /* \"#utility.yul\":6104:6110   */\n      dup7\n        /* \"#utility.yul\":6060:6132   */\n      tag_120\n      jump\t// in\n    tag_232:\n        /* \"#utility.yul\":6142:6214   */\n      tag_233\n        /* \"#utility.yul\":6210:6212   */\n      0x40\n        /* \"#utility.yul\":6199:6208   */\n      dup4\n        /* \"#utility.yul\":6195:6213   */\n      add\n        /* \"#utility.yul\":6186:6192   */\n      dup6\n        /* \"#utility.yul\":6142:6214   */\n      tag_120\n      jump\t// in\n    tag_233:\n        /* \"#utility.yul\":6224:6290   */\n      tag_234\n        /* \"#utility.yul\":6286:6288   */\n      0x60\n        /* \"#utility.yul\":6275:6284   */\n      dup4\n        /* \"#utility.yul\":6271:6289   */\n      add\n        /* \"#utility.yul\":6262:6268   */\n      dup5\n        /* \"#utility.yul\":6224:6290   */\n      tag_122\n      jump\t// in\n    tag_234:\n        /* \"#utility.yul\":5665:6297   */\n      swap6\n      swap5\n      pop\n      pop\n      pop\n      pop\n      pop\n      jump\t// out\n        /* \"#utility.yul\":6303:6421   */\n    tag_132:\n        /* \"#utility.yul\":6390:6414   */\n      tag_236\n        /* \"#utility.yul\":6408:6413   */\n      dup2\n        /* \"#utility.yul\":6390:6414   */\n      tag_111\n      jump\t// in\n    tag_236:\n        /* \"#utility.yul\":6385:6388   */\n      dup3\n        /* \"#utility.yul\":6378:6415   */\n      mstore\n        /* \"#utility.yul\":6303:6421   */\n      pop\n      pop\n      jump\t// out\n        /* \"#utility.yul\":6427:6649   */\n    tag_33:\n        /* \"#utility.yul\":6520:6524   */\n      0x00\n        /* \"#utility.yul\":6558:6560   */\n      0x20\n        /* \"#utility.yul\":6547:6556   */\n      dup3\n        /* \"#utility.yul\":6543:6561   */\n      add\n        /* \"#utility.yul\":6535:6561   */\n      swap1\n      pop\n        /* \"#utility.yul\":6571:6642   */\n      tag_238\n        /* \"#utility.yul\":6639:6640   */\n      0x00\n        /* \"#utility.yul\":6628:6637   */\n      dup4\n        /* \"#utility.yul\":6624:6641   */\n      add\n        /* \"#utility.yul\":6615:6621   */\n      dup5\n        /* \"#utility.yul\":6571:6642   */\n      tag_132\n      jump\t// in\n    tag_238:\n        /* \"#utility.yul\":6427:6649   */\n      swap3\n      swap2\n      pop\n      pop\n      jump\t// out\n        /* \"#utility.yul\":6655:6865   */\n    tag_38:\n        /* \"#utility.yul\":6742:6746   */\n      0x00\n        /* \"#utility.yul\":6780:6782   */\n      0x20\n        /* \"#utility.yul\":6769:6778   */\n      dup3\n        /* \"#utility.yul\":6765:6783   */\n      add\n        /* \"#utility.yul\":6757:6783   */\n      swap1\n      pop\n        /* \"#utility.yul\":6793:6858   */\n      tag_240\n        /* \"#utility.yul\":6855:6856   */\n      0x00\n        /* \"#utility.yul\":6844:6853   */\n      dup4\n        /* \"#utility.yul\":6840:6857   */\n      add\n        /* \"#utility.yul\":6831:6837   */\n      dup5\n        /* \"#utility.yul\":6793:6858   */\n      tag_122\n      jump\t// in\n    tag_240:\n        /* \"#utility.yul\":6655:6865   */\n      swap3\n      swap2\n      pop\n      pop\n      jump\t// out\n        /* \"#utility.yul\":6871:6993   */\n    tag_133:\n        /* \"#utility.yul\":6944:6968   */\n      tag_242\n        /* \"#utility.yul\":6962:6967   */\n      dup2\n        /* \"#utility.yul\":6944:6968   */\n      tag_119\n      jump\t// in\n    tag_242:\n        /* \"#utility.yul\":6937:6942   */\n      dup2\n        /* \"#utility.yul\":6934:6969   */\n      eq\n        /* \"#utility.yul\":6924:6987   */\n      tag_243\n      jumpi\n        /* \"#utility.yul\":6983:6984   */\n      0x00\n        /* \"#utility.yul\":6980:6981   */\n      0x00\n        /* \"#utility.yul\":6973:6985   */\n      revert\n        /* \"#utility.yul\":6924:6987   */\n    tag_243:\n        /* \"#utility.yul\":6871:6993   */\n      pop\n      jump\t// out\n        /* \"#utility.yul\":6999:7138   */\n    tag_134:\n        /* \"#utility.yul\":7045:7050   */\n      0x00\n        /* \"#utility.yul\":7083:7089   */\n      dup2\n        /* \"#utility.yul\":7070:7090   */\n      calldataload\n        /* \"#utility.yul\":7061:7090   */\n      swap1\n      pop\n        /* \"#utility.yul\":7099:7132   */\n      tag_245\n        /* \"#utility.yul\":7126:7131   */\n      dup2\n        /* \"#utility.yul\":7099:7132   */\n      tag_133\n      jump\t// in\n    tag_245:\n        /* \"#utility.yul\":6999:7138   */\n      swap3\n      swap2\n      pop\n      pop\n      jump\t// out\n        /* \"#utility.yul\":7144:7943   */\n    tag_41:\n        /* \"#utility.yul\":7231:7237   */\n      0x00\n        /* \"#utility.yul\":7239:7245   */\n      0x00\n        /* \"#utility.yul\":7247:7253   */\n      0x00\n        /* \"#utility.yul\":7296:7298   */\n      0x60\n        /* \"#utility.yul\":7284:7293   */\n      dup5\n        /* \"#utility.yul\":7275:7282   */\n      dup7\n        /* \"#utility.yul\":7271:7294   */\n      sub\n        /* \"#utility.yul\":7267:7299   */\n      slt\n        /* \"#utility.yul\":7264:7383   */\n      iszero\n      tag_247\n      jumpi\n        /* \"#utility.yul\":7302:7381   */\n      tag_248\n      tag_108\n      jump\t// in\n    tag_248:\n        /* \"#utility.yul\":7264:7383   */\n    tag_247:\n        /* \"#utility.yul\":7422:7423   */\n      0x00\n        /* \"#utility.yul\":7447:7500   */\n      tag_249\n        /* \"#utility.yul\":7492:7499   */\n      dup7\n        /* \"#utility.yul\":7483:7489   */\n      dup3\n        /* \"#utility.yul\":7472:7481   */\n      dup8\n        /* \"#utility.yul\":7468:7490   */\n      add\n        /* \"#utility.yul\":7447:7500   */\n      tag_113\n      jump\t// in\n    tag_249:\n        /* \"#utility.yul\":7437:7500   */\n      swap4\n      pop\n        /* \"#utility.yul\":7393:7510   */\n      pop\n        /* \"#utility.yul\":7577:7579   */\n      0x20\n        /* \"#utility.yul\":7566:7575   */\n      dup5\n        /* \"#utility.yul\":7562:7580   */\n      add\n        /* \"#utility.yul\":7549:7581   */\n      calldataload\n        /* \"#utility.yul\":7608:7626   */\n      0xffffffffffffffff\n        /* \"#utility.yul\":7600:7606   */\n      dup2\n        /* \"#utility.yul\":7597:7627   */\n      gt\n        /* \"#utility.yul\":7594:7711   */\n      iszero\n      tag_250\n      jumpi\n        /* \"#utility.yul\":7630:7709   */\n      tag_251\n      tag_109\n      jump\t// in\n    tag_251:\n        /* \"#utility.yul\":7594:7711   */\n    tag_250:\n        /* \"#utility.yul\":7735:7798   */\n      tag_252\n        /* \"#utility.yul\":7790:7797   */\n      dup7\n        /* \"#utility.yul\":7781:7787   */\n      dup3\n        /* \"#utility.yul\":7770:7779   */\n      dup8\n        /* \"#utility.yul\":7766:7788   */\n      add\n        /* \"#utility.yul\":7735:7798   */\n      tag_131\n      jump\t// in\n    tag_252:\n        /* \"#utility.yul\":7725:7798   */\n      swap3\n      pop\n        /* \"#utility.yul\":7520:7808   */\n      pop\n        /* \"#utility.yul\":7847:7849   */\n      0x40\n        /* \"#utility.yul\":7873:7926   */\n      tag_253\n        /* \"#utility.yul\":7918:7925   */\n      dup7\n        /* \"#utility.yul\":7909:7915   */\n      dup3\n        /* \"#utility.yul\":7898:7907   */\n      dup8\n        /* \"#utility.yul\":7894:7916   */\n      add\n        /* \"#utility.yul\":7873:7926   */\n      tag_134\n      jump\t// in\n    tag_253:\n        /* \"#utility.yul\":7863:7926   */\n      swap2\n      pop\n        /* \"#utility.yul\":7818:7936   */\n      pop\n        /* \"#utility.yul\":7144:7943   */\n      swap3\n      pop\n      swap3\n      pop\n      swap3\n      jump\t// out\n        /* \"#utility.yul\":7949:8065   */\n    tag_135:\n        /* \"#utility.yul\":8019:8040   */\n      tag_255\n        /* \"#utility.yul\":8034:8039   */\n      dup2\n        /* \"#utility.yul\":8019:8040   */\n      tag_121\n      jump\t// in\n    tag_255:\n        /* \"#utility.yul\":8012:8017   */\n      dup2\n        /* \"#utility.yul\":8009:8041   */\n      eq\n        /* \"#utility.yul\":7999:8059   */\n      tag_256\n      jumpi\n        /* \"#utility.yul\":8055:8056   */\n      0x00\n        /* \"#utility.yul\":8052:8053   */\n      0x00\n        /* \"#utility.yul\":8045:8057   */\n      revert\n        /* \"#utility.yul\":7999:8059   */\n    tag_256:\n        /* \"#utility.yul\":7949:8065   */\n      pop\n      jump\t// out\n        /* \"#utility.yul\":8071:8204   */\n    tag_136:\n        /* \"#utility.yul\":8114:8119   */\n      0x00\n        /* \"#utility.yul\":8152:8158   */\n      dup2\n        /* \"#utility.yul\":8139:8159   */\n      calldataload\n        /* \"#utility.yul\":8130:8159   */\n      swap1\n      pop\n        /* \"#utility.yul\":8168:8198   */\n      tag_258\n        /* \"#utility.yul\":8192:8197   */\n      dup2\n        /* \"#utility.yul\":8168:8198   */\n      tag_135\n      jump\t// in\n    tag_258:\n        /* \"#utility.yul\":8071:8204   */\n      swap3\n      swap2\n      pop\n      pop\n      jump\t// out\n        /* \"#utility.yul\":8210:8533   */\n    tag_48:\n        /* \"#utility.yul\":8266:8272   */\n      0x00\n        /* \"#utility.yul\":8315:8317   */\n      0x20\n        /* \"#utility.yul\":8303:8312   */\n      dup3\n        /* \"#utility.yul\":8294:8301   */\n      dup5\n        /* \"#utility.yul\":8290:8313   */\n      sub\n        /* \"#utility.yul\":8286:8318   */\n      slt\n        /* \"#utility.yul\":8283:8402   */\n      iszero\n      tag_260\n      jumpi\n        /* \"#utility.yul\":8321:8400   */\n      tag_261\n      tag_108\n      jump\t// in\n    tag_261:\n        /* \"#utility.yul\":8283:8402   */\n    tag_260:\n        /* \"#utility.yul\":8441:8442   */\n      0x00\n        /* \"#utility.yul\":8466:8516   */\n      tag_262\n        /* \"#utility.yul\":8508:8515   */\n      dup5\n        /* \"#utility.yul\":8499:8505   */\n      dup3\n        /* \"#utility.yul\":8488:8497   */\n      dup6\n        /* \"#utility.yul\":8484:8506   */\n      add\n        /* \"#utility.yul\":8466:8516   */\n      tag_136\n      jump\t// in\n    tag_262:\n        /* \"#utility.yul\":8456:8516   */\n      swap2\n      pop\n        /* \"#utility.yul\":8412:8526   */\n      pop\n        /* \"#utility.yul\":8210:8533   */\n      swap3\n      swap2\n      pop\n      pop\n      jump\t// out\n        /* \"#utility.yul\":8539:8761   */\n    tag_54:\n        /* \"#utility.yul\":8632:8636   */\n      0x00\n        /* \"#utility.yul\":8670:8672   */\n      0x20\n        /* \"#utility.yul\":8659:8668   */\n      dup3\n        /* \"#utility.yul\":8655:8673   */\n      add\n        /* \"#utility.yul\":8647:8673   */\n      swap1\n      pop\n        /* \"#utility.yul\":8683:8754   */\n      tag_264\n        /* \"#utility.yul\":8751:8752   */\n      0x00\n        /* \"#utility.yul\":8740:8749   */\n      dup4\n        /* \"#utility.yul\":8736:8753   */\n      add\n        /* \"#utility.yul\":8727:8733   */\n      dup5\n        /* \"#utility.yul\":8683:8754   */\n      tag_120\n      jump\t// in\n    tag_264:\n        /* \"#utility.yul\":8539:8761   */\n      swap3\n      swap2\n      pop\n      pop\n      jump\t// out\n        /* \"#utility.yul\":8767:8947   */\n    tag_137:\n        /* \"#utility.yul\":8815:8892   */\n      0x4e487b7100000000000000000000000000000000000000000000000000000000\n        /* \"#utility.yul\":8812:8813   */\n      0x00\n        /* \"#utility.yul\":8805:8893   */\n      mstore\n        /* \"#utility.yul\":8912:8916   */\n      0x22\n        /* \"#utility.yul\":8909:8910   */\n      0x04\n        /* \"#utility.yul\":8902:8917   */\n      mstore\n        /* \"#utility.yul\":8936:8940   */\n      0x24\n        /* \"#utility.yul\":8933:8934   */\n      0x00\n        /* \"#utility.yul\":8926:8941   */\n      revert\n        /* \"#utility.yul\":8953:9273   */\n    tag_56:\n        /* \"#utility.yul\":8997:9003   */\n      0x00\n        /* \"#utility.yul\":9034:9035   */\n      0x02\n        /* \"#utility.yul\":9028:9032   */\n      dup3\n        /* \"#utility.yul\":9024:9036   */\n      div\n        /* \"#utility.yul\":9014:9036   */\n      swap1\n      pop\n        /* \"#utility.yul\":9081:9082   */\n      0x01\n        /* \"#utility.yul\":9075:9079   */\n      dup3\n        /* \"#utility.yul\":9071:9083   */\n      and\n        /* \"#utility.yul\":9102:9120   */\n      dup1\n        /* \"#utility.yul\":9092:9173   */\n      tag_267\n      jumpi\n        /* \"#utility.yul\":9158:9162   */\n      0x7f\n        /* \"#utility.yul\":9150:9156   */\n      dup3\n        /* \"#utility.yul\":9146:9163   */\n      and\n        /* \"#utility.yul\":9136:9163   */\n      swap2\n      pop\n        /* \"#utility.yul\":9092:9173   */\n    tag_267:\n        /* \"#utility.yul\":9220:9222   */\n      0x20\n        /* \"#utility.yul\":9212:9218   */\n      dup3\n        /* \"#utility.yul\":9209:9223   */\n      lt\n        /* \"#utility.yul\":9189:9207   */\n      dup2\n        /* \"#utility.yul\":9186:9224   */\n      sub\n        /* \"#utility.yul\":9183:9267   */\n      tag_268\n      jumpi\n        /* \"#utility.yul\":9239:9257   */\n      tag_269\n      tag_137\n      jump\t// in\n    tag_269:\n        /* \"#utility.yul\":9183:9267   */\n    tag_268:\n        /* \"#utility.yul\":9004:9273   */\n      pop\n        /* \"#utility.yul\":8953:9273   */\n      swap2\n      swap1\n      pop\n      jump\t// out\n        /* \"#utility.yul\":9279:9440   */\n    tag_138:\n        /* \"#utility.yul\":9419:9432   */\n      0x48616e7961206f776e6572000000000000000000000000000000000000000000\n        /* \"#utility.yul\":9415:9416   */\n      0x00\n        /* \"#utility.yul\":9407:9413   */\n      dup3\n        /* \"#utility.yul\":9403:9417   */\n      add\n        /* \"#utility.yul\":9396:9433   */\n      mstore\n        /* \"#utility.yul\":9279:9440   */\n      pop\n      jump\t// out\n        /* \"#utility.yul\":9446:9812   */\n    tag_139:\n        /* \"#utility.yul\":9588:9591   */\n      0x00\n        /* \"#utility.yul\":9609:9676   */\n      tag_272\n        /* \"#utility.yul\":9673:9675   */\n      0x0b\n        /* \"#utility.yul\":9668:9671   */\n      dup4\n        /* \"#utility.yul\":9609:9676   */\n      tag_115\n      jump\t// in\n    tag_272:\n        /* \"#utility.yul\":9602:9676   */\n      swap2\n      pop\n        /* \"#utility.yul\":9685:9778   */\n      tag_273\n        /* \"#utility.yul\":9774:9777   */\n      dup3\n        /* \"#utility.yul\":9685:9778   */\n      tag_138\n      jump\t// in\n    tag_273:\n        /* \"#utility.yul\":9803:9805   */\n      0x20\n        /* \"#utility.yul\":9798:9801   */\n      dup3\n        /* \"#utility.yul\":9794:9806   */\n      add\n        /* \"#utility.yul\":9787:9806   */\n      swap1\n      pop\n        /* \"#utility.yul\":9446:9812   */\n      swap2\n      swap1\n      pop\n      jump\t// out\n        /* \"#utility.yul\":9818:10237   */\n    tag_64:\n        /* \"#utility.yul\":9984:9988   */\n      0x00\n        /* \"#utility.yul\":10022:10024   */\n      0x20\n        /* \"#utility.yul\":10011:10020   */\n      dup3\n        /* \"#utility.yul\":10007:10025   */\n      add\n        /* \"#utility.yul\":9999:10025   */\n      swap1\n      pop\n        /* \"#utility.yul\":10071:10080   */\n      dup2\n        /* \"#utility.yul\":10065:10069   */\n      dup2\n        /* \"#utility.yul\":10061:10081   */\n      sub\n        /* \"#utility.yul\":10057:10058   */\n      0x00\n        /* \"#utility.yul\":10046:10055   */\n      dup4\n        /* \"#utility.yul\":10042:10059   */\n      add\n        /* \"#utility.yul\":10035:10082   */\n      mstore\n        /* \"#utility.yul\":10099:10230   */\n      tag_275\n        /* \"#utility.yul\":10225:10229   */\n      dup2\n        /* \"#utility.yul\":10099:10230   */\n      tag_139\n      jump\t// in\n    tag_275:\n        /* \"#utility.yul\":10091:10230   */\n      swap1\n      pop\n        /* \"#utility.yul\":9818:10237   */\n      swap2\n      swap1\n      pop\n      jump\t// out\n        /* \"#utility.yul\":10243:10384   */\n    tag_140:\n        /* \"#utility.yul\":10292:10296   */\n      0x00\n        /* \"#utility.yul\":10315:10318   */\n      dup2\n        /* \"#utility.yul\":10307:10318   */\n      swap1\n      pop\n        /* \"#utility.yul\":10338:10341   */\n      dup2\n        /* \"#utility.yul\":10335:10336   */\n      0x00\n        /* \"#utility.yul\":10328:10342   */\n      mstore\n        /* \"#utility.yul\":10372:10376   */\n      0x20\n        /* \"#utility.yul\":10369:10370   */\n      0x00\n        /* \"#utility.yul\":10359:10377   */\n      keccak256\n        /* \"#utility.yul\":10351:10377   */\n      swap1\n      pop\n        /* \"#utility.yul\":10243:10384   */\n      swap2\n      swap1\n      pop\n      jump\t// out\n        /* \"#utility.yul\":10390:10483   */\n    tag_141:\n        /* \"#utility.yul\":10427:10433   */\n      0x00\n        /* \"#utility.yul\":10474:10476   */\n      0x20\n        /* \"#utility.yul\":10469:10471   */\n      0x1f\n        /* \"#utility.yul\":10462:10467   */\n      dup4\n        /* \"#utility.yul\":10458:10472   */\n      add\n        /* \"#utility.yul\":10454:10477   */\n      div\n        /* \"#utility.yul\":10444:10477   */\n      swap1\n      pop\n        /* \"#utility.yul\":10390:10483   */\n      swap2\n      swap1\n      pop\n      jump\t// out\n        /* \"#utility.yul\":10489:10596   */\n    tag_142:\n        /* \"#utility.yul\":10533:10541   */\n      0x00\n        /* \"#utility.yul\":10583:10588   */\n      dup3\n        /* \"#utility.yul\":10577:10581   */\n      dup3\n        /* \"#utility.yul\":10573:10589   */\n      shl\n        /* \"#utility.yul\":10552:10589   */\n      swap1\n      pop\n        /* \"#utility.yul\":10489:10596   */\n      swap3\n      swap2\n      pop\n      pop\n      jump\t// out\n        /* \"#utility.yul\":10602:10995   */\n    tag_143:\n        /* \"#utility.yul\":10671:10677   */\n      0x00\n        /* \"#utility.yul\":10721:10722   */\n      0x08\n        /* \"#utility.yul\":10709:10719   */\n      dup4\n        /* \"#utility.yul\":10705:10723   */\n      mul\n        /* \"#utility.yul\":10744:10841   */\n      tag_280\n        /* \"#utility.yul\":10774:10840   */\n      0xffffffffffffffffffffffffffffffffffffffffffffffffffffffffffffffff\n        /* \"#utility.yul\":10763:10772   */\n      dup3\n        /* \"#utility.yul\":10744:10841   */\n      tag_142\n      jump\t// in\n    tag_280:\n        /* \"#utility.yul\":10862:10901   */\n      tag_281\n        /* \"#utility.yul\":10892:10900   */\n      dup7\n        /* \"#utility.yul\":10881:10890   */\n      dup4\n        /* \"#utility.yul\":10862:10901   */\n      tag_142\n      jump\t// in\n    tag_281:\n        /* \"#utility.yul\":10850:10901   */\n      swap6\n      pop\n        /* \"#utility.yul\":10934:10938   */\n      dup1\n        /* \"#utility.yul\":10930:10939   */\n      not\n        /* \"#utility.yul\":10923:10928   */\n      dup5\n        /* \"#utility.yul\":10919:10940   */\n      and\n        /* \"#utility.yul\":10910:10940   */\n      swap4\n      pop\n        /* \"#utility.yul\":10983:10987   */\n      dup1\n        /* \"#utility.yul\":10973:10981   */\n      dup7\n        /* \"#utility.yul\":10969:10988   */\n      and\n        /* \"#utility.yul\":10962:10967   */\n      dup5\n        /* \"#utility.yul\":10959:10989   */\n      or\n        /* \"#utility.yul\":10949:10989   */\n      swap3\n      pop\n        /* \"#utility.yul\":10678:10995   */\n      pop\n      pop\n        /* \"#utility.yul\":10602:10995   */\n      swap4\n      swap3\n      pop\n      pop\n      pop\n      jump\t// out\n        /* \"#utility.yul\":11001:11061   */\n    tag_144:\n        /* \"#utility.yul\":11029:11032   */\n      0x00\n        /* \"#utility.yul\":11050:11055   */\n      dup2\n        /* \"#utility.yul\":11043:11055   */\n      swap1\n      pop\n        /* \"#utility.yul\":11001:11061   */\n      swap2\n      swap1\n      pop\n      jump\t// out\n        /* \"#utility.yul\":11067:11209   */\n    tag_145:\n        /* \"#utility.yul\":11117:11126   */\n      0x00\n        /* \"#utility.yul\":11150:11203   */\n      tag_284\n        /* \"#utility.yul\":11168:11202   */\n      tag_285\n        /* \"#utility.yul\":11177:11201   */\n      tag_286\n        /* \"#utility.yul\":11195:11200   */\n      dup5\n        /* \"#utility.yul\":11177:11201   */\n      tag_119\n      jump\t// in\n    tag_286:\n        /* \"#utility.yul\":11168:11202   */\n      tag_144\n      jump\t// in\n    tag_285:\n        /* \"#utility.yul\":11150:11203   */\n      tag_119\n      jump\t// in\n    tag_284:\n        /* \"#utility.yul\":11137:11203   */\n      swap1\n      pop\n        /* \"#utility.yul\":11067:11209   */\n      swap2\n      swap1\n      pop\n      jump\t// out\n        /* \"#utility.yul\":11215:11290   */\n    tag_146:\n        /* \"#utility.yul\":11258:11261   */\n      0x00\n        /* \"#utility.yul\":11279:11284   */\n      dup2\n        /* \"#utility.yul\":11272:11284   */\n      swap1\n      pop\n        /* \"#utility.yul\":11215:11290   */\n      swap2\n      swap1\n      pop\n      jump\t// out\n        /* \"#utility.yul\":11296:11565   */\n    tag_147:\n        /* \"#utility.yul\":11406:11445   */\n      tag_289\n        /* \"#utility.yul\":11437:11444   */\n      dup4\n        /* \"#utility.yul\":11406:11445   */\n      tag_145\n      jump\t// in\n    tag_289:\n        /* \"#utility.yul\":11467:11558   */\n      tag_290\n        /* \"#utility.yul\":11516:11557   */\n      tag_291\n        /* \"#utility.yul\":11540:11556   */\n      dup3\n        /* \"#utility.yul\":11516:11557   */\n      tag_146\n      jump\t// in\n    tag_291:\n        /* \"#utility.yul\":11508:11514   */\n      dup5\n        /* \"#utility.yul\":11501:11505   */\n      dup5\n        /* \"#utility.yul\":11495:11506   */\n      sload\n        /* \"#utility.yul\":11467:11558   */\n      tag_143\n      jump\t// in\n    tag_290:\n        /* \"#utility.yul\":11461:11465   */\n      dup3\n        /* \"#utility.yul\":11454:11559   */\n      sstore\n        /* \"#utility.yul\":11372:11565   */\n      pop\n        /* \"#utility.yul\":11296:11565   */\n      pop\n      pop\n      pop\n      jump\t// out\n        /* \"#utility.yul\":11571:11644   */\n    tag_148:\n        /* \"#utility.yul\":11616:11619   */\n      0x00\n        /* \"#utility.yul\":11637:11638   */\n      0x00\n        /* \"#utility.yul\":11630:11638   */\n      swap1\n      pop\n        /* \"#utility.yul\":11571:11644   */\n      swap1\n      jump\t// out\n        /* \"#utility.yul\":11650:11839   */\n    tag_149:\n        /* \"#utility.yul\":11727:11759   */\n      tag_294\n      tag_148\n      jump\t// in\n    tag_294:\n        /* \"#utility.yul\":11768:11833   */\n      tag_295\n        /* \"#utility.yul\":11826:11832   */\n      dup2\n        /* \"#utility.yul\":11818:11824   */\n      dup5\n        /* \"#utility.yul\":11812:11816   */\n      dup5\n        /* \"#utility.yul\":11768:11833   */\n      tag_147\n      jump\t// in\n    tag_295:\n        /* \"#utility.yul\":11703:11839   */\n      pop\n        /* \"#utility.yul\":11650:11839   */\n      pop\n      pop\n      jump\t// out\n        /* \"#utility.yul\":11845:12059   */\n    tag_150:\n        /* \"#utility.yul\":11930:11931   */\n      0x00\n        /* \"#utility.yul\":11915:12053   */\n    tag_297:\n        /* \"#utility.yul\":11940:11949   */\n      dup3\n        /* \"#utility.yul\":11937:11938   */\n      dup2\n        /* \"#utility.yul\":11934:11950   */\n      lt\n        /* \"#utility.yul\":11915:12053   */\n      iszero\n      tag_299\n      jumpi\n        /* \"#utility.yul\":11992:12043   */\n      tag_300\n        /* \"#utility.yul\":12041:12042   */\n      0x00\n        /* \"#utility.yul\":12037:12038   */\n      dup3\n        /* \"#utility.yul\":12026:12035   */\n      dup5\n        /* \"#utility.yul\":12022:12039   */\n      add\n        /* \"#utility.yul\":11992:12043   */\n      tag_149\n      jump\t// in\n    tag_300:\n        /* \"#utility.yul\":11965:11966   */\n      0x01\n        /* \"#utility.yul\":11962:11963   */\n      dup2\n        /* \"#utility.yul\":11958:11967   */\n      add\n        /* \"#utility.yul\":11953:11967   */\n      swap1\n      pop\n        /* \"#utility.yul\":11915:12053   */\n      jump(tag_297)\n    tag_299:\n        /* \"#utility.yul\":11919:11933   */\n      pop\n        /* \"#utility.yul\":11845:12059   */\n      pop\n      pop\n      jump\t// out\n        /* \"#utility.yul\":12065:12811   */\n    tag_151:\n        /* \"#utility.yul\":12166:12168   */\n      0x1f\n        /* \"#utility.yul\":12161:12164   */\n      dup3\n        /* \"#utility.yul\":12158:12169   */\n      gt\n        /* \"#utility.yul\":12155:12804   */\n      iszero\n      tag_302\n      jumpi\n        /* \"#utility.yul\":12195:12205   */\n      dup3\n        /* \"#utility.yul\":12190:12193   */\n      dup3\n        /* \"#utility.yul\":12187:12206   */\n      gt\n        /* \"#utility.yul\":12184:12794   */\n      iszero\n      tag_303\n      jumpi\n        /* \"#utility.yul\":12241:12279   */\n      tag_304\n        /* \"#utility.yul\":12273:12278   */\n      dup2\n        /* \"#utility.yul\":12241:12279   */\n      tag_140\n      jump\t// in\n    tag_304:\n        /* \"#utility.yul\":12316:12338   */\n      tag_305\n        /* \"#utility.yul\":12334:12337   */\n      dup4\n        /* \"#utility.yul\":12316:12338   */\n      tag_141\n      jump\t// in\n    tag_305:\n        /* \"#utility.yul\":12375:12404   */\n      tag_306\n        /* \"#utility.yul\":12393:12403   */\n      dup6\n        /* \"#utility.yul\":12375:12404   */\n      tag_141\n      jump\t// in\n    tag_306:\n        /* \"#utility.yul\":12565:12567   */\n      0x20\n        /* \"#utility.yul\":12553:12563   */\n      dup7\n        /* \"#utility.yul\":12550:12568   */\n      lt\n        /* \"#utility.yul\":12547:12626   */\n      iszero\n      tag_307\n      jumpi\n        /* \"#utility.yul\":12607:12608   */\n      0x00\n        /* \"#utility.yul\":12591:12608   */\n      swap1\n      pop\n        /* \"#utility.yul\":12547:12626   */\n    tag_307:\n        /* \"#utility.yul\":12676:12688   */\n      dup1\n        /* \"#utility.yul\":12666:12674   */\n      dup4\n        /* \"#utility.yul\":12662:12689   */\n      add\n        /* \"#utility.yul\":12706:12780   */\n      tag_308\n        /* \"#utility.yul\":12766:12778   */\n      dup3\n        /* \"#utility.yul\":12752:12764   */\n      dup5\n        /* \"#utility.yul\":12748:12779   */\n      sub\n        /* \"#utility.yul\":12735:12746   */\n      dup3\n        /* \"#utility.yul\":12706:12780   */\n      tag_150\n      jump\t// in\n    tag_308:\n        /* \"#utility.yul\":12207:12794   */\n      pop\n      pop\n      pop\n      pop\n        /* \"#utility.yul\":12184:12794   */\n    tag_303:\n        /* \"#utility.yul\":12155:12804   */\n    tag_302:\n        /* \"#utility.yul\":12065:12811   */\n      pop\n      pop\n      pop\n      jump\t// out\n        /* \"#utility.yul\":12817:12934   */\n    tag_152:\n        /* \"#utility.yul\":12871:12879   */\n      0x00\n        /* \"#utility.yul\":12921:12926   */\n      dup3\n        /* \"#utility.yul\":12915:12919   */\n      dup3\n        /* \"#utility.yul\":12911:12927   */\n      shr\n        /* \"#utility.yul\":12890:12927   */\n      swap1\n      pop\n        /* \"#utility.yul\":12817:12934   */\n      swap3\n      swap2\n      pop\n      pop\n      jump\t// out\n        /* \"#utility.yul\":12940:13109   */\n    tag_153:\n        /* \"#utility.yul\":12984:12990   */\n      0x00\n        /* \"#utility.yul\":13017:13068   */\n      tag_311\n        /* \"#utility.yul\":13065:13066   */\n      0x00\n        /* \"#utility.yul\":13061:13067   */\n      not\n        /* \"#utility.yul\":13053:13058   */\n      dup5\n        /* \"#utility.yul\":13050:13051   */\n      0x08\n        /* \"#utility.yul\":13046:13059   */\n      mul\n        /* \"#utility.yul\":13017:13068   */\n      tag_152\n      jump\t// in\n    tag_311:\n        /* \"#utility.yul\":13013:13069   */\n      not\n        /* \"#utility.yul\":13098:13102   */\n      dup1\n        /* \"#utility.yul\":13092:13096   */\n      dup4\n        /* \"#utility.yul\":13088:13103   */\n      and\n        /* \"#utility.yul\":13078:13103   */\n      swap2\n      pop\n        /* \"#utility.yul\":12991:13109   */\n      pop\n        /* \"#utility.yul\":12940:13109   */\n      swap3\n      swap2\n      pop\n      pop\n      jump\t// out\n        /* \"#utility.yul\":13114:13409   */\n    tag_154:\n        /* \"#utility.yul\":13190:13194   */\n      0x00\n        /* \"#utility.yul\":13336:13365   */\n      tag_313\n        /* \"#utility.yul\":13361:13364   */\n      dup4\n        /* \"#utility.yul\":13355:13359   */\n      dup4\n        /* \"#utility.yul\":13336:13365   */\n      tag_153\n      jump\t// in\n    tag_313:\n        /* \"#utility.yul\":13328:13365   */\n      swap2\n      pop\n        /* \"#utility.yul\":13398:13401   */\n      dup3\n        /* \"#utility.yul\":13395:13396   */\n      0x02\n        /* \"#utility.yul\":13391:13402   */\n      mul\n        /* \"#utility.yul\":13385:13389   */\n      dup3\n        /* \"#utility.yul\":13382:13403   */\n      or\n        /* \"#utility.yul\":13374:13403   */\n      swap1\n      pop\n        /* \"#utility.yul\":13114:13409   */\n      swap3\n      swap2\n      pop\n      pop\n      jump\t// out\n        /* \"#utility.yul\":13414:14809   */\n    tag_67:\n        /* \"#utility.yul\":13531:13568   */\n      tag_315\n        /* \"#utility.yul\":13564:13567   */\n      dup3\n        /* \"#utility.yul\":13531:13568   */\n      tag_114\n      jump\t// in\n    tag_315:\n        /* \"#utility.yul\":13633:13651   */\n      0xffffffffffffffff\n        /* \"#utility.yul\":13625:13631   */\n      dup2\n        /* \"#utility.yul\":13622:13652   */\n      gt\n        /* \"#utility.yul\":13619:13675   */\n      iszero\n      tag_316\n      jumpi\n        /* \"#utility.yul\":13655:13673   */\n      tag_317\n      tag_125\n      jump\t// in\n    tag_317:\n        /* \"#utility.yul\":13619:13675   */\n    tag_316:\n        /* \"#utility.yul\":13699:13737   */\n      tag_318\n        /* \"#utility.yul\":13731:13735   */\n      dup3\n        /* \"#utility.yul\":13725:13736   */\n      sload\n        /* \"#utility.yul\":13699:13737   */\n      tag_56\n      jump\t// in\n    tag_318:\n        /* \"#utility.yul\":13784:13851   */\n      tag_319\n        /* \"#utility.yul\":13844:13850   */\n      dup3\n        /* \"#utility.yul\":13836:13842   */\n      dup3\n        /* \"#utility.yul\":13830:13834   */\n      dup6\n        /* \"#utility.yul\":13784:13851   */\n      tag_151\n      jump\t// in\n    tag_319:\n        /* \"#utility.yul\":13878:13879   */\n      0x00\n        /* \"#utility.yul\":13902:13906   */\n      0x20\n        /* \"#utility.yul\":13889:13906   */\n      swap1\n      pop\n        /* \"#utility.yul\":13934:13936   */\n      0x1f\n        /* \"#utility.yul\":13926:13932   */\n      dup4\n        /* \"#utility.yul\":13923:13937   */\n      gt\n        /* \"#utility.yul\":13951:13952   */\n      0x01\n        /* \"#utility.yul\":13946:14564   */\n      dup2\n      eq\n      tag_321\n      jumpi\n        /* \"#utility.yul\":14608:14609   */\n      0x00\n        /* \"#utility.yul\":14625:14631   */\n      dup5\n        /* \"#utility.yul\":14622:14699   */\n      iszero\n      tag_322\n      jumpi\n        /* \"#utility.yul\":14674:14683   */\n      dup3\n        /* \"#utility.yul\":14669:14672   */\n      dup8\n        /* \"#utility.yul\":14665:14684   */\n      add\n        /* \"#utility.yul\":14659:14685   */\n      mload\n        /* \"#utility.yul\":14650:14685   */\n      swap1\n      pop\n        /* \"#utility.yul\":14622:14699   */\n    tag_322:\n        /* \"#utility.yul\":14725:14792   */\n      tag_323\n        /* \"#utility.yul\":14785:14791   */\n      dup6\n        /* \"#utility.yul\":14778:14783   */\n      dup3\n        /* \"#utility.yul\":14725:14792   */\n      tag_154\n      jump\t// in\n    tag_323:\n        /* \"#utility.yul\":14719:14723   */\n      dup7\n        /* \"#utility.yul\":14712:14793   */\n      sstore\n        /* \"#utility.yul\":14581:14803   */\n      pop\n        /* \"#utility.yul\":13916:14803   */\n      jump(tag_320)\n        /* \"#utility.yul\":13946:14564   */\n    tag_321:\n        /* \"#utility.yul\":13998:14002   */\n      0x1f\n        /* \"#utility.yul\":13994:14003   */\n      not\n        /* \"#utility.yul\":13986:13992   */\n      dup5\n        /* \"#utility.yul\":13982:14004   */\n      and\n        /* \"#utility.yul\":14032:14069   */\n      tag_324\n        /* \"#utility.yul\":14064:14068   */\n      dup7\n        /* \"#utility.yul\":14032:14069   */\n      tag_140\n      jump\t// in\n    tag_324:\n        /* \"#utility.yul\":14091:14092   */\n      0x00\n        /* \"#utility.yul\":14105:14313   */\n    tag_325:\n        /* \"#utility.yul\":14119:14126   */\n      dup3\n        /* \"#utility.yul\":14116:14117   */\n      dup2\n        /* \"#utility.yul\":14113:14127   */\n      lt\n        /* \"#utility.yul\":14105:14313   */\n      iszero\n      tag_327\n      jumpi\n        /* \"#utility.yul\":14198:14207   */\n      dup5\n        /* \"#utility.yul\":14193:14196   */\n      dup10\n        /* \"#utility.yul\":14189:14208   */\n      add\n        /* \"#utility.yul\":14183:14209   */\n      mload\n        /* \"#utility.yul\":14175:14181   */\n      dup3\n        /* \"#utility.yul\":14168:14210   */\n      sstore\n        /* \"#utility.yul\":14249:14250   */\n      0x01\n        /* \"#utility.yul\":14241:14247   */\n      dup3\n        /* \"#utility.yul\":14237:14251   */\n      add\n        /* \"#utility.yul\":14227:14251   */\n      swap2\n      pop\n        /* \"#utility.yul\":14296:14298   */\n      0x20\n        /* \"#utility.yul\":14285:14294   */\n      dup6\n        /* \"#utility.yul\":14281:14299   */\n      add\n        /* \"#utility.yul\":14268:14299   */\n      swap5\n      pop\n        /* \"#utility.yul\":14142:14146   */\n      0x20\n        /* \"#utility.yul\":14139:14140   */\n      dup2\n        /* \"#utility.yul\":14135:14147   */\n      add\n        /* \"#utility.yul\":14130:14147   */\n      swap1\n      pop\n        /* \"#utility.yul\":14105:14313   */\n      jump(tag_325)\n    tag_327:\n        /* \"#utility.yul\":14341:14347   */\n      dup7\n        /* \"#utility.yul\":14332:14339   */\n      dup4\n        /* \"#utility.yul\":14329:14348   */\n      lt\n        /* \"#utility.yul\":14326:14505   */\n      iszero\n      tag_328\n      jumpi\n        /* \"#utility.yul\":14399:14408   */\n      dup5\n        /* \"#utility.yul\":14394:14397   */\n      dup10\n        /* \"#utility.yul\":14390:14409   */\n      add\n        /* \"#utility.yul\":14384:14410   */\n      mload\n        /* \"#utility.yul\":14442:14490   */\n      tag_329\n        /* \"#utility.yul\":14484:14488   */\n      0x1f\n        /* \"#utility.yul\":14476:14482   */\n      dup10\n        /* \"#utility.yul\":14472:14489   */\n      and\n        /* \"#utility.yul\":14461:14470   */\n      dup3\n        /* \"#utility.yul\":14442:14490   */\n      tag_153\n      jump\t// in\n    tag_329:\n        /* \"#utility.yul\":14434:14440   */\n      dup4\n        /* \"#utility.yul\":14427:14491   */\n      sstore\n        /* \"#utility.yul\":14349:14505   */\n      pop\n        /* \"#utility.yul\":14326:14505   */\n    tag_328:\n        /* \"#utility.yul\":14551:14552   */\n      0x01\n        /* \"#utility.yul\":14547:14548   */\n      0x02\n        /* \"#utility.yul\":14539:14545   */\n      dup9\n        /* \"#utility.yul\":14535:14549   */\n      mul\n        /* \"#utility.yul\":14531:14553   */\n      add\n        /* \"#utility.yul\":14525:14529   */\n      dup9\n        /* \"#utility.yul\":14518:14554   */\n      sstore\n        /* \"#utility.yul\":13953:14564   */\n      pop\n      pop\n      pop\n        /* \"#utility.yul\":13916:14803   */\n    tag_320:\n      pop\n        /* \"#utility.yul\":13506:14809   */\n      pop\n      pop\n      pop\n        /* \"#utility.yul\":13414:14809   */\n      pop\n      pop\n      jump\t// out\n        /* \"#utility.yul\":14815:14985   */\n    tag_155:\n        /* \"#utility.yul\":14955:14977   */\n      0x42756b616e2070656d6567616e6720736168616d000000000000000000000000\n        /* \"#utility.yul\":14951:14952   */\n      0x00\n        /* \"#utility.yul\":14943:14949   */\n      dup3\n        /* \"#utility.yul\":14939:14953   */\n      add\n        /* \"#utility.yul\":14932:14978   */\n      mstore\n        /* \"#utility.yul\":14815:14985   */\n      pop\n      jump\t// out\n        /* \"#utility.yul\":14991:15357   */\n    tag_156:\n        /* \"#utility.yul\":15133:15136   */\n      0x00\n        /* \"#utility.yul\":15154:15221   */\n      tag_332\n        /* \"#utility.yul\":15218:15220   */\n      0x14\n        /* \"#utility.yul\":15213:15216   */\n      dup4\n        /* \"#utility.yul\":15154:15221   */\n      tag_115\n      jump\t// in\n    tag_332:\n        /* \"#utility.yul\":15147:15221   */\n      swap2\n      pop\n        /* \"#utility.yul\":15230:15323   */\n      tag_333\n        /* \"#utility.yul\":15319:15322   */\n      dup3\n        /* \"#utility.yul\":15230:15323   */\n      tag_155\n      jump\t// in\n    tag_333:\n        /* \"#utility.yul\":15348:15350   */\n      0x20\n        /* \"#utility.yul\":15343:15346   */\n      dup3\n        /* \"#utility.yul\":15339:15351   */\n      add\n        /* \"#utility.yul\":15332:15351   */\n      swap1\n      pop\n        /* \"#utility.yul\":14991:15357   */\n      swap2\n      swap1\n      pop\n      jump\t// out\n        /* \"#utility.yul\":15363:15782   */\n    tag_91:\n        /* \"#utility.yul\":15529:15533   */\n      0x00\n        /* \"#utility.yul\":15567:15569   */\n      0x20\n        /* \"#utility.yul\":15556:15565   */\n      dup3\n        /* \"#utility.yul\":15552:15570   */\n      add\n        /* \"#utility.yul\":15544:15570   */\n      swap1\n      pop\n        /* \"#utility.yul\":15616:15625   */\n      dup2\n        /* \"#utility.yul\":15610:15614   */\n      dup2\n        /* \"#utility.yul\":15606:15626   */\n      sub\n        /* \"#utility.yul\":15602:15603   */\n      0x00\n        /* \"#utility.yul\":15591:15600   */\n      dup4\n        /* \"#utility.yul\":15587:15604   */\n      add\n        /* \"#utility.yul\":15580:15627   */\n      mstore\n        /* \"#utility.yul\":15644:15775   */\n      tag_335\n        /* \"#utility.yul\":15770:15774   */\n      dup2\n        /* \"#utility.yul\":15644:15775   */\n      tag_156\n      jump\t// in\n    tag_335:\n        /* \"#utility.yul\":15636:15775   */\n      swap1\n      pop\n        /* \"#utility.yul\":15363:15782   */\n      swap2\n      swap1\n      pop\n      jump\t// out\n        /* \"#utility.yul\":15788:15950   */\n    tag_157:\n        /* \"#utility.yul\":15928:15942   */\n      0x537564616820766f74696e670000000000000000000000000000000000000000\n        /* \"#utility.yul\":15924:15925   */\n      0x00\n        /* \"#utility.yul\":15916:15922   */\n      dup3\n        /* \"#utility.yul\":15912:15926   */\n      add\n        /* \"#utility.yul\":15905:15943   */\n      mstore\n        /* \"#utility.yul\":15788:15950   */\n      pop\n      jump\t// out\n        /* \"#utility.yul\":15956:16322   */\n    tag_158:\n        /* \"#utility.yul\":16098:16101   */\n      0x00\n        /* \"#utility.yul\":16119:16186   */\n      tag_338\n        /* \"#utility.yul\":16183:16185   */\n      0x0c\n        /* \"#utility.yul\":16178:16181   */\n      dup4\n        /* \"#utility.yul\":16119:16186   */\n      tag_115\n      jump\t// in\n    tag_338:\n        /* \"#utility.yul\":16112:16186   */\n      swap2\n      pop\n        /* \"#utility.yul\":16195:16288   */\n      tag_339\n        /* \"#utility.yul\":16284:16287   */\n      dup3\n        /* \"#utility.yul\":16195:16288   */\n      tag_157\n      jump\t// in\n    tag_339:\n        /* \"#utility.yul\":16313:16315   */\n      0x20\n        /* \"#utility.yul\":16308:16311   */\n      dup3\n        /* \"#utility.yul\":16304:16316   */\n      add\n        /* \"#utility.yul\":16297:16316   */\n      swap1\n      pop\n        /* \"#utility.yul\":15956:16322   */\n      swap2\n      swap1\n      pop\n      jump\t// out\n        /* \"#utility.yul\":16328:16747   */\n    tag_94:\n        /* \"#utility.yul\":16494:16498   */\n      0x00\n        /* \"#utility.yul\":16532:16534   */\n      0x20\n        /* \"#utility.yul\":16521:16530   */\n      dup3\n        /* \"#utility.yul\":16517:16535   */\n      add\n        /* \"#utility.yul\":16509:16535   */\n      swap1\n      pop\n        /* \"#utility.yul\":16581:16590   */\n      dup2\n        /* \"#utility.yul\":16575:16579   */\n      dup2\n        /* \"#utility.yul\":16571:16591   */\n      sub\n        /* \"#utility.yul\":16567:16568   */\n      0x00\n        /* \"#utility.yul\":16556:16565   */\n      dup4\n        /* \"#utility.yul\":16552:16569   */\n      add\n        /* \"#utility.yul\":16545:16592   */\n      mstore\n        /* \"#utility.yul\":16609:16740   */\n      tag_341\n        /* \"#utility.yul\":16735:16739   */\n      dup2\n        /* \"#utility.yul\":16609:16740   */\n      tag_158\n      jump\t// in\n    tag_341:\n        /* \"#utility.yul\":16601:16740   */\n      swap1\n      pop\n        /* \"#utility.yul\":16328:16747   */\n      swap2\n      swap1\n      pop\n      jump\t// out\n        /* \"#utility.yul\":16753:16921   */\n    tag_159:\n        /* \"#utility.yul\":16893:16913   */\n      0x566f74696e6720746964616b20616b7469660000000000000000000000000000\n        /* \"#utility.yul\":16889:16890   */\n      0x00\n        /* \"#utility.yul\":16881:16887   */\n      dup3\n        /* \"#utility.yul\":16877:16891   */\n      add\n        /* \"#utility.yul\":16870:16914   */\n      mstore\n        /* \"#utility.yul\":16753:16921   */\n      pop\n      jump\t// out\n        /* \"#utility.yul\":16927:17293   */\n    tag_160:\n        /* \"#utility.yul\":17069:17072   */\n      0x00\n        /* \"#utility.yul\":17090:17157   */\n      tag_344\n        /* \"#utility.yul\":17154:17156   */\n      0x12\n        /* \"#utility.yul\":17149:17152   */\n      dup4\n        /* \"#utility.yul\":17090:17157   */\n      tag_115\n      jump\t// in\n    tag_344:\n        /* \"#utility.yul\":17083:17157   */\n      swap2\n      pop\n        /* \"#utility.yul\":17166:17259   */\n      tag_345\n        /* \"#utility.yul\":17255:17258   */\n      dup3\n        /* \"#utility.yul\":17166:17259   */\n      tag_159\n      jump\t// in\n    tag_345:\n        /* \"#utility.yul\":17284:17286   */\n      0x20\n        /* \"#utility.yul\":17279:17282   */\n      dup3\n        /* \"#utility.yul\":17275:17287   */\n      add\n        /* \"#utility.yul\":17268:17287   */\n      swap1\n      pop\n        /* \"#utility.yul\":16927:17293   */\n      swap2\n      swap1\n      pop\n      jump\t// out\n        /* \"#utility.yul\":17299:17718   */\n    tag_97:\n        /* \"#utility.yul\":17465:17469   */\n      0x00\n        /* \"#utility.yul\":17503:17505   */\n      0x20\n        /* \"#utility.yul\":17492:17501   */\n      dup3\n        /* \"#utility.yul\":17488:17506   */\n      add\n        /* \"#utility.yul\":17480:17506   */\n      swap1\n      pop\n        /* \"#utility.yul\":17552:17561   */\n      dup2\n        /* \"#utility.yul\":17546:17550   */\n      dup2\n        /* \"#utility.yul\":17542:17562   */\n      sub\n        /* \"#utility.yul\":17538:17539   */\n      0x00\n        /* \"#utility.yul\":17527:17536   */\n      dup4\n        /* \"#utility.yul\":17523:17540   */\n      add\n        /* \"#utility.yul\":17516:17563   */\n      mstore\n        /* \"#utility.yul\":17580:17711   */\n      tag_347\n        /* \"#utility.yul\":17706:17710   */\n      dup2\n        /* \"#utility.yul\":17580:17711   */\n      tag_160\n      jump\t// in\n    tag_347:\n        /* \"#utility.yul\":17572:17711   */\n      swap1\n      pop\n        /* \"#utility.yul\":17299:17718   */\n      swap2\n      swap1\n      pop\n      jump\t// out\n        /* \"#utility.yul\":17724:17904   */\n    tag_161:\n        /* \"#utility.yul\":17772:17849   */\n      0x4e487b7100000000000000000000000000000000000000000000000000000000\n        /* \"#utility.yul\":17769:17770   */\n      0x00\n        /* \"#utility.yul\":17762:17850   */\n      mstore\n        /* \"#utility.yul\":17869:17873   */\n      0x11\n        /* \"#utility.yul\":17866:17867   */\n      0x04\n        /* \"#utility.yul\":17859:17874   */\n      mstore\n        /* \"#utility.yul\":17893:17897   */\n      0x24\n        /* \"#utility.yul\":17890:17891   */\n      0x00\n        /* \"#utility.yul\":17883:17898   */\n      revert\n        /* \"#utility.yul\":17910:18101   */\n    tag_100:\n        /* \"#utility.yul\":17950:17953   */\n      0x00\n        /* \"#utility.yul\":17969:17989   */\n      tag_350\n        /* \"#utility.yul\":17987:17988   */\n      dup3\n        /* \"#utility.yul\":17969:17989   */\n      tag_119\n      jump\t// in\n    tag_350:\n        /* \"#utility.yul\":17964:17989   */\n      swap2\n      pop\n        /* \"#utility.yul\":18003:18023   */\n      tag_351\n        /* \"#utility.yul\":18021:18022   */\n      dup4\n        /* \"#utility.yul\":18003:18023   */\n      tag_119\n      jump\t// in\n    tag_351:\n        /* \"#utility.yul\":17998:18023   */\n      swap3\n      pop\n        /* \"#utility.yul\":18046:18047   */\n      dup3\n        /* \"#utility.yul\":18043:18044   */\n      dup3\n        /* \"#utility.yul\":18039:18048   */\n      add\n        /* \"#utility.yul\":18032:18048   */\n      swap1\n      pop\n        /* \"#utility.yul\":18067:18070   */\n      dup1\n        /* \"#utility.yul\":18064:18065   */\n      dup3\n        /* \"#utility.yul\":18061:18071   */\n      gt\n        /* \"#utility.yul\":18058:18094   */\n      iszero\n      tag_352\n      jumpi\n        /* \"#utility.yul\":18074:18092   */\n      tag_353\n      tag_161\n      jump\t// in\n    tag_353:\n        /* \"#utility.yul\":18058:18094   */\n    tag_352:\n        /* \"#utility.yul\":17910:18101   */\n      swap3\n      swap2\n      pop\n      pop\n      jump\t// out\n        /* \"#utility.yul\":18107:18272   */\n    tag_162:\n        /* \"#utility.yul\":18247:18264   */\n      0x42656c756d207465726461667461720000000000000000000000000000000000\n        /* \"#utility.yul\":18243:18244   */\n      0x00\n        /* \"#utility.yul\":18235:18241   */\n      dup3\n        /* \"#utility.yul\":18231:18245   */\n      add\n        /* \"#utility.yul\":18224:18265   */\n      mstore\n        /* \"#utility.yul\":18107:18272   */\n      pop\n      jump\t// out\n        /* \"#utility.yul\":18278:18644   */\n    tag_163:\n        /* \"#utility.yul\":18420:18423   */\n      0x00\n        /* \"#utility.yul\":18441:18508   */\n      tag_356\n        /* \"#utility.yul\":18505:18507   */\n      0x0f\n        /* \"#utility.yul\":18500:18503   */\n      dup4\n        /* \"#utility.yul\":18441:18508   */\n      tag_115\n      jump\t// in\n    tag_356:\n        /* \"#utility.yul\":18434:18508   */\n      swap2\n      pop\n        /* \"#utility.yul\":18517:18610   */\n      tag_357\n        /* \"#utility.yul\":18606:18609   */\n      dup3\n        /* \"#utility.yul\":18517:18610   */\n      tag_162\n      jump\t// in\n    tag_357:\n        /* \"#utility.yul\":18635:18637   */\n      0x20\n        /* \"#utility.yul\":18630:18633   */\n      dup3\n        /* \"#utility.yul\":18626:18638   */\n      add\n        /* \"#utility.yul\":18619:18638   */\n      swap1\n      pop\n        /* \"#utility.yul\":18278:18644   */\n      swap2\n      swap1\n      pop\n      jump\t// out\n        /* \"#utility.yul\":18650:19069   */\n    tag_106:\n        /* \"#utility.yul\":18816:18820   */\n      0x00\n        /* \"#utility.yul\":18854:18856   */\n      0x20\n        /* \"#utility.yul\":18843:18852   */\n      dup3\n        /* \"#utility.yul\":18839:18857   */\n      add\n        /* \"#utility.yul\":18831:18857   */\n      swap1\n      pop\n        /* \"#utility.yul\":18903:18912   */\n      dup2\n        /* \"#utility.yul\":18897:18901   */\n      dup2\n        /* \"#utility.yul\":18893:18913   */\n      sub\n        /* \"#utility.yul\":18889:18890   */\n      0x00\n        /* \"#utility.yul\":18878:18887   */\n      dup4\n        /* \"#utility.yul\":18874:18891   */\n      add\n        /* \"#utility.yul\":18867:18914   */\n      mstore\n        /* \"#utility.yul\":18931:19062   */\n      tag_359\n        /* \"#utility.yul\":19057:19061   */\n      dup2\n        /* \"#utility.yul\":18931:19062   */\n      tag_163\n      jump\t// in\n    tag_359:\n        /* \"#utility.yul\":18923:19062   */\n      swap1\n      pop\n        /* \"#utility.yul\":18650:19069   */\n      swap2\n      swap1\n      pop\n      jump\t// out\n\n    auxdata: 0xa26469706673582212200688cfd2c18329cf9547e452441e0a320f1dbb916fb3ec4688eb0f0c21aa43fe64736f6c63430008220033\n}\n",
				"bytecode": {
					"linkReferences": {},
					"object": "6080604052348015600e575f5ffd5b50335f5f6101000a81548173ffffffffffffffffffffffffffffffffffffffff021916908373ffffffffffffffffffffffffffffffffffffffff16021790555061143b8061005b5f395ff3fe608060405234801561000f575f5ffd5b506004361061009b575f3560e01c8063a6aedac811610064578063a6aedac814610136578063d3df30a614610166578063e0afe63c14610182578063f6df3e5d146101a3578063fede7b9c146101bf5761009b565b8062ab0d231461009f57806314f1bdcb146100d157806354dc7796146100ed57806358724b871461010e5780638da5cb5b14610118575b5f5ffd5b6100b960048036038101906100b49190610ab5565b6101ef565b6040516100c893929190610b82565b60405180910390f35b6100eb60048036038101906100e69190610cea565b6102a7565b005b6100f56103a8565b6040516101059493929190610d31565b60405180910390f35b610116610466565b005b610120610512565b60405161012d9190610d8a565b60405180910390f35b610150600480360381019061014b9190610ab5565b610536565b60405161015d9190610da3565b60405180910390f35b610180600480360381019061017b9190610de6565b610553565b005b61018a610681565b60405161019a9493929190610d31565b60405180910390f35b6101bd60048036038101906101b89190610e7c565b610730565b005b6101d960048036038101906101d49190610ab5565b610975565b6040516101e69190610ea7565b60405180910390f35b6001602052805f5260405f205f91509050805f01805461020e90610eed565b80601f016020809104026020016040519081016040528092919081815260200182805461023a90610eed565b80156102855780601f1061025c57610100808354040283529160200191610285565b820191905f5260205f20905b81548152906001019060200180831161026857829003601f168201915b505050505090806001015490806002015f9054906101000a900460ff16905083565b5f5f9054906101000a900473ffffffffffffffffffffffffffffffffffffffff1673ffffffffffffffffffffffffffffffffffffffff163373ffffffffffffffffffffffffffffffffffffffff1614610335576040517f08c379a000000000000000000000000000000000000000000000000000000000815260040161032c90610f67565b60405180910390fd5b60405180608001604052808281526020015f81526020015f81526020016001151581525060025f820151815f01908161036e9190611136565b5060208201518160010155604082015181600201556060820151816003015f6101000a81548160ff02191690831515021790555090505050565b60605f5f5f60025f01600260010154600280015460026003015f9054906101000a900460ff168380546103da90610eed565b80601f016020809104026020016040519081016040528092919081815260200182805461040690610eed565b80156104515780601f1061042857610100808354040283529160200191610451565b820191905f5260205f20905b81548152906001019060200180831161043457829003601f168201915b50505050509350935093509350935090919293565b5f5f9054906101000a900473ffffffffffffffffffffffffffffffffffffffff1673ffffffffffffffffffffffffffffffffffffffff163373ffffffffffffffffffffffffffffffffffffffff16146104f4576040517f08c379a00000000000000000000000000000000000000000000000000000000081526004016104eb90610f67565b60405180910390fd5b5f60026003015f6101000a81548160ff021916908315150217905550565b5f5f9054906101000a900473ffffffffffffffffffffffffffffffffffffffff1681565b6006602052805f5260405f205f915054906101000a900460ff1681565b5f5f9054906101000a900473ffffffffffffffffffffffffffffffffffffffff1673ffffffffffffffffffffffffffffffffffffffff163373ffffffffffffffffffffffffffffffffffffffff16146105e1576040517f08c379a00000000000000000000000000000000000000000000000000000000081526004016105d890610f67565b60405180910390fd5b60405180606001604052808381526020018281526020016001151581525060015f8573ffffffffffffffffffffffffffffffffffffffff1673ffffffffffffffffffffffffffffffffffffffff1681526020019081526020015f205f820151815f01908161064f9190611136565b50602082015181600101556040820151816002015f6101000a81548160ff021916908315150217905550905050505050565b6002805f01805461069190610eed565b80601f01602080910402602001604051908101604052809291908181526020018280546106bd90610eed565b80156107085780601f106106df57610100808354040283529160200191610708565b820191905f5260205f20905b8154815290600101906020018083116106eb57829003601f168201915b505050505090806001015490806002015490806003015f9054906101000a900460ff16905084565b60015f3373ffffffffffffffffffffffffffffffffffffffff1673ffffffffffffffffffffffffffffffffffffffff1681526020019081526020015f206002015f9054906101000a900460ff166107bc576040517f08c379a00000000000000000000000000000000000000000000000000000000081526004016107b39061124f565b60405180910390fd5b60065f3373ffffffffffffffffffffffffffffffffffffffff1673ffffffffffffffffffffffffffffffffffffffff1681526020019081526020015f205f9054906101000a900460ff1615610846576040517f08c379a000000000000000000000000000000000000000000000000000000000815260040161083d906112b7565b60405180910390fd5b60026003015f9054906101000a900460ff16610897576040517f08c379a000000000000000000000000000000000000000000000000000000000815260040161088e9061131f565b60405180910390fd5b5f60015f3373ffffffffffffffffffffffffffffffffffffffff1673ffffffffffffffffffffffffffffffffffffffff1681526020019081526020015f206001015490508115610901578060026001015f8282546108f5919061136a565b9250508190555061091c565b80600280015f828254610914919061136a565b925050819055505b600160065f3373ffffffffffffffffffffffffffffffffffffffff1673ffffffffffffffffffffffffffffffffffffffff1681526020019081526020015f205f6101000a81548160ff0219169083151502179055505050565b5f60015f8373ffffffffffffffffffffffffffffffffffffffff1673ffffffffffffffffffffffffffffffffffffffff1681526020019081526020015f206002015f9054906101000a900460ff16610a02576040517f08c379a00000000000000000000000000000000000000000000000000000000081526004016109f9906113e7565b60405180910390fd5b60015f8373ffffffffffffffffffffffffffffffffffffffff1673ffffffffffffffffffffffffffffffffffffffff1681526020019081526020015f20600101549050919050565b5f604051905090565b5f5ffd5b5f5ffd5b5f73ffffffffffffffffffffffffffffffffffffffff82169050919050565b5f610a8482610a5b565b9050919050565b610a9481610a7a565b8114610a9e575f5ffd5b50565b5f81359050610aaf81610a8b565b92915050565b5f60208284031215610aca57610ac9610a53565b5b5f610ad784828501610aa1565b91505092915050565b5f81519050919050565b5f82825260208201905092915050565b8281835e5f83830152505050565b5f601f19601f8301169050919050565b5f610b2282610ae0565b610b2c8185610aea565b9350610b3c818560208601610afa565b610b4581610b08565b840191505092915050565b5f819050919050565b610b6281610b50565b82525050565b5f8115159050919050565b610b7c81610b68565b82525050565b5f6060820190508181035f830152610b9a8186610b18565b9050610ba96020830185610b59565b610bb66040830184610b73565b949350505050565b5f5ffd5b5f5ffd5b7f4e487b71000000000000000000000000000000000000000000000000000000005f52604160045260245ffd5b610bfc82610b08565b810181811067ffffffffffffffff82111715610c1b57610c1a610bc6565b5b80604052505050565b5f610c2d610a4a565b9050610c398282610bf3565b919050565b5f67ffffffffffffffff821115610c5857610c57610bc6565b5b610c6182610b08565b9050602081019050919050565b828183375f83830152505050565b5f610c8e610c8984610c3e565b610c24565b905082815260208101848484011115610caa57610ca9610bc2565b5b610cb5848285610c6e565b509392505050565b5f82601f830112610cd157610cd0610bbe565b5b8135610ce1848260208601610c7c565b91505092915050565b5f60208284031215610cff57610cfe610a53565b5b5f82013567ffffffffffffffff811115610d1c57610d1b610a57565b5b610d2884828501610cbd565b91505092915050565b5f6080820190508181035f830152610d498187610b18565b9050610d586020830186610b59565b610d656040830185610b59565b610d726060830184610b73565b95945050505050565b610d8481610a7a565b82525050565b5f602082019050610d9d5f830184610d7b565b92915050565b5f602082019050610db65f830184610b73565b92915050565b610dc581610b50565b8114610dcf575f5ffd5b50565b5f81359050610de081610dbc565b92915050565b5f5f5f60608486031215610dfd57610dfc610a53565b5b5f610e0a86828701610aa1565b935050602084013567ffffffffffffffff811115610e2b57610e2a610a57565b5b610e3786828701610cbd565b9250506040610e4886828701610dd2565b9150509250925092565b610e5b81610b68565b8114610e65575f5ffd5b50565b5f81359050610e7681610e52565b92915050565b5f60208284031215610e9157610e90610a53565b5b5f610e9e84828501610e68565b91505092915050565b5f602082019050610eba5f830184610b59565b92915050565b7f4e487b71000000000000000000000000000000000000000000000000000000005f52602260045260245ffd5b5f6002820490506001821680610f0457607f821691505b602082108103610f1757610f16610ec0565b5b50919050565b7f48616e7961206f776e65720000000000000000000000000000000000000000005f82015250565b5f610f51600b83610aea565b9150610f5c82610f1d565b602082019050919050565b5f6020820190508181035f830152610f7e81610f45565b9050919050565b5f819050815f5260205f209050919050565b5f6020601f8301049050919050565b5f82821b905092915050565b5f60088302610fe17fffffffffffffffffffffffffffffffffffffffffffffffffffffffffffffffff82610fa6565b610feb8683610fa6565b95508019841693508086168417925050509392505050565b5f819050919050565b5f61102661102161101c84610b50565b611003565b610b50565b9050919050565b5f819050919050565b61103f8361100c565b61105361104b8261102d565b848454610fb2565b825550505050565b5f5f905090565b61106a61105b565b611075818484611036565b505050565b5f5b8281101561109b576110905f828401611062565b60018101905061107c565b505050565b601f8211156110ee57828211156110ed576110ba81610f85565b6110c383610f97565b6110cc85610f97565b60208610156110d9575f90505b8083016110e88284038261107a565b505050505b5b505050565b5f82821c905092915050565b5f61110e5f19846008026110f3565b1980831691505092915050565b5f61112683836110ff565b9150826002028217905092915050565b61113f82610ae0565b67ffffffffffffffff81111561115857611157610bc6565b5b6111628254610eed565b61116d8282856110a0565b5f60209050601f83116001811461119e575f841561118c578287015190505b611196858261111b565b8655506111fd565b601f1984166111ac86610f85565b5f5b828110156111d3578489015182556001820191506020850194506020810190506111ae565b868310156111f057848901516111ec601f8916826110ff565b8355505b6001600288020188555050505b505050505050565b7f42756b616e2070656d6567616e6720736168616d0000000000000000000000005f82015250565b5f611239601483610aea565b915061124482611205565b602082019050919050565b5f6020820190508181035f8301526112668161122d565b9050919050565b7f537564616820766f74696e6700000000000000000000000000000000000000005f82015250565b5f6112a1600c83610aea565b91506112ac8261126d565b602082019050919050565b5f6020820190508181035f8301526112ce81611295565b9050919050565b7f566f74696e6720746964616b20616b74696600000000000000000000000000005f82015250565b5f611309601283610aea565b9150611314826112d5565b602082019050919050565b5f6020820190508181035f830152611336816112fd565b9050919050565b7f4e487b71000000000000000000000000000000000000000000000000000000005f52601160045260245ffd5b5f61137482610b50565b915061137f83610b50565b92508282019050808211156113975761139661133d565b5b92915050565b7f42656c756d2074657264616674617200000000000000000000000000000000005f82015250565b5f6113d1600f83610aea565b91506113dc8261139d565b602082019050919050565b5f6020820190508181035f8301526113fe816113c5565b905091905056fea26469706673582212200688cfd2c18329cf9547e452441e0a320f1dbb916fb3ec4688eb0f0c21aa43fe64736f6c63430008220033",
					"opcodes": "PUSH1 0x80 PUSH1 0x40 MSTORE CALLVALUE DUP1 ISZERO PUSH1 0xE JUMPI PUSH0 PUSH0 REVERT JUMPDEST POP CALLER PUSH0 PUSH0 PUSH2 0x100 EXP DUP2 SLOAD DUP2 PUSH20 0xFFFFFFFFFFFFFFFFFFFFFFFFFFFFFFFFFFFFFFFF MUL NOT AND SWAP1 DUP4 PUSH20 0xFFFFFFFFFFFFFFFFFFFFFFFFFFFFFFFFFFFFFFFF AND MUL OR SWAP1 SSTORE POP PUSH2 0x143B DUP1 PUSH2 0x5B PUSH0 CODECOPY PUSH0 RETURN INVALID PUSH1 0x80 PUSH1 0x40 MSTORE CALLVALUE DUP1 ISZERO PUSH2 0xF JUMPI PUSH0 PUSH0 REVERT JUMPDEST POP PUSH1 0x4 CALLDATASIZE LT PUSH2 0x9B JUMPI PUSH0 CALLDATALOAD PUSH1 0xE0 SHR DUP1 PUSH4 0xA6AEDAC8 GT PUSH2 0x64 JUMPI DUP1 PUSH4 0xA6AEDAC8 EQ PUSH2 0x136 JUMPI DUP1 PUSH4 0xD3DF30A6 EQ PUSH2 0x166 JUMPI DUP1 PUSH4 0xE0AFE63C EQ PUSH2 0x182 JUMPI DUP1 PUSH4 0xF6DF3E5D EQ PUSH2 0x1A3 JUMPI DUP1 PUSH4 0xFEDE7B9C EQ PUSH2 0x1BF JUMPI PUSH2 0x9B JUMP JUMPDEST DUP1 PUSH3 0xAB0D23 EQ PUSH2 0x9F JUMPI DUP1 PUSH4 0x14F1BDCB EQ PUSH2 0xD1 JUMPI DUP1 PUSH4 0x54DC7796 EQ PUSH2 0xED JUMPI DUP1 PUSH4 0x58724B87 EQ PUSH2 0x10E JUMPI DUP1 PUSH4 0x8DA5CB5B EQ PUSH2 0x118 JUMPI JUMPDEST PUSH0 PUSH0 REVERT JUMPDEST PUSH2 0xB9 PUSH1 0x4 DUP1 CALLDATASIZE SUB DUP2 ADD SWAP1 PUSH2 0xB4 SWAP2 SWAP1 PUSH2 0xAB5 JUMP JUMPDEST PUSH2 0x1EF JUMP JUMPDEST PUSH1 0x40 MLOAD PUSH2 0xC8 SWAP4 SWAP3 SWAP2 SWAP1 PUSH2 0xB82 JUMP JUMPDEST PUSH1 0x40 MLOAD DUP1 SWAP2 SUB SWAP1 RETURN JUMPDEST PUSH2 0xEB PUSH1 0x4 DUP1 CALLDATASIZE SUB DUP2 ADD SWAP1 PUSH2 0xE6 SWAP2 SWAP1 PUSH2 0xCEA JUMP JUMPDEST PUSH2 0x2A7 JUMP JUMPDEST STOP JUMPDEST PUSH2 0xF5 PUSH2 0x3A8 JUMP JUMPDEST PUSH1 0x40 MLOAD PUSH2 0x105 SWAP5 SWAP4 SWAP3 SWAP2 SWAP1 PUSH2 0xD31 JUMP JUMPDEST PUSH1 0x40 MLOAD DUP1 SWAP2 SUB SWAP1 RETURN JUMPDEST PUSH2 0x116 PUSH2 0x466 JUMP JUMPDEST STOP JUMPDEST PUSH2 0x120 PUSH2 0x512 JUMP JUMPDEST PUSH1 0x40 MLOAD PUSH2 0x12D SWAP2 SWAP1 PUSH2 0xD8A JUMP JUMPDEST PUSH1 0x40 MLOAD DUP1 SWAP2 SUB SWAP1 RETURN JUMPDEST PUSH2 0x150 PUSH1 0x4 DUP1 CALLDATASIZE SUB DUP2 ADD SWAP1 PUSH2 0x14B SWAP2 SWAP1 PUSH2 0xAB5 JUMP JUMPDEST PUSH2 0x536 JUMP JUMPDEST PUSH1 0x40 MLOAD PUSH2 0x15D SWAP2 SWAP1 PUSH2 0xDA3 JUMP JUMPDEST PUSH1 0x40 MLOAD DUP1 SWAP2 SUB SWAP1 RETURN JUMPDEST PUSH2 0x180 PUSH1 0x4 DUP1 CALLDATASIZE SUB DUP2 ADD SWAP1 PUSH2 0x17B SWAP2 SWAP1 PUSH2 0xDE6 JUMP JUMPDEST PUSH2 0x553 JUMP JUMPDEST STOP JUMPDEST PUSH2 0x18A PUSH2 0x681 JUMP JUMPDEST PUSH1 0x40 MLOAD PUSH2 0x19A SWAP5 SWAP4 SWAP3 SWAP2 SWAP1 PUSH2 0xD31 JUMP JUMPDEST PUSH1 0x40 MLOAD DUP1 SWAP2 SUB SWAP1 RETURN JUMPDEST PUSH2 0x1BD PUSH1 0x4 DUP1 CALLDATASIZE SUB DUP2 ADD SWAP1 PUSH2 0x1B8 SWAP2 SWAP1 PUSH2 0xE7C JUMP JUMPDEST PUSH2 0x730 JUMP JUMPDEST STOP JUMPDEST PUSH2 0x1D9 PUSH1 0x4 DUP1 CALLDATASIZE SUB DUP2 ADD SWAP1 PUSH2 0x1D4 SWAP2 SWAP1 PUSH2 0xAB5 JUMP JUMPDEST PUSH2 0x975 JUMP JUMPDEST PUSH1 0x40 MLOAD PUSH2 0x1E6 SWAP2 SWAP1 PUSH2 0xEA7 JUMP JUMPDEST PUSH1 0x40 MLOAD DUP1 SWAP2 SUB SWAP1 RETURN JUMPDEST PUSH1 0x1 PUSH1 0x20 MSTORE DUP1 PUSH0 MSTORE PUSH1 0x40 PUSH0 KECCAK256 PUSH0 SWAP2 POP SWAP1 POP DUP1 PUSH0 ADD DUP1 SLOAD PUSH2 0x20E SWAP1 PUSH2 0xEED JUMP JUMPDEST DUP1 PUSH1 0x1F ADD PUSH1 0x20 DUP1 SWAP2 DIV MUL PUSH1 0x20 ADD PUSH1 0x40 MLOAD SWAP1 DUP2 ADD PUSH1 0x40 MSTORE DUP1 SWAP3 SWAP2 SWAP1 DUP2 DUP2 MSTORE PUSH1 0x20 ADD DUP3 DUP1 SLOAD PUSH2 0x23A SWAP1 PUSH2 0xEED JUMP JUMPDEST DUP1 ISZERO PUSH2 0x285 JUMPI DUP1 PUSH1 0x1F LT PUSH2 0x25C JUMPI PUSH2 0x100 DUP1 DUP4 SLOAD DIV MUL DUP4 MSTORE SWAP2 PUSH1 0x20 ADD SWAP2 PUSH2 0x285 JUMP JUMPDEST DUP3 ADD SWAP2 SWAP1 PUSH0 MSTORE PUSH1 0x20 PUSH0 KECCAK256 SWAP1 JUMPDEST DUP2 SLOAD DUP2 MSTORE SWAP1 PUSH1 0x1 ADD SWAP1 PUSH1 0x20 ADD DUP1 DUP4 GT PUSH2 0x268 JUMPI DUP3 SWAP1 SUB PUSH1 0x1F AND DUP3 ADD SWAP2 JUMPDEST POP POP POP POP POP SWAP1 DUP1 PUSH1 0x1 ADD SLOAD SWAP1 DUP1 PUSH1 0x2 ADD PUSH0 SWAP1 SLOAD SWAP1 PUSH2 0x100 EXP SWAP1 DIV PUSH1 0xFF AND SWAP1 POP DUP4 JUMP JUMPDEST PUSH0 PUSH0 SWAP1 SLOAD SWAP1 PUSH2 0x100 EXP SWAP1 DIV PUSH20 0xFFFFFFFFFFFFFFFFFFFFFFFFFFFFFFFFFFFFFFFF AND PUSH20 0xFFFFFFFFFFFFFFFFFFFFFFFFFFFFFFFFFFFFFFFF AND CALLER PUSH20 0xFFFFFFFFFFFFFFFFFFFFFFFFFFFFFFFFFFFFFFFF AND EQ PUSH2 0x335 JUMPI PUSH1 0x40 MLOAD PUSH32 0x8C379A000000000000000000000000000000000000000000000000000000000 DUP2 MSTORE PUSH1 0x4 ADD PUSH2 0x32C SWAP1 PUSH2 0xF67 JUMP JUMPDEST PUSH1 0x40 MLOAD DUP1 SWAP2 SUB SWAP1 REVERT JUMPDEST PUSH1 0x40 MLOAD DUP1 PUSH1 0x80 ADD PUSH1 0x40 MSTORE DUP1 DUP3 DUP2 MSTORE PUSH1 0x20 ADD PUSH0 DUP2 MSTORE PUSH1 0x20 ADD PUSH0 DUP2 MSTORE PUSH1 0x20 ADD PUSH1 0x1 ISZERO ISZERO DUP2 MSTORE POP PUSH1 0x2 PUSH0 DUP3 ADD MLOAD DUP2 PUSH0 ADD SWAP1 DUP2 PUSH2 0x36E SWAP2 SWAP1 PUSH2 0x1136 JUMP JUMPDEST POP PUSH1 0x20 DUP3 ADD MLOAD DUP2 PUSH1 0x1 ADD SSTORE PUSH1 0x40 DUP3 ADD MLOAD DUP2 PUSH1 0x2 ADD SSTORE PUSH1 0x60 DUP3 ADD MLOAD DUP2 PUSH1 0x3 ADD PUSH0 PUSH2 0x100 EXP DUP2 SLOAD DUP2 PUSH1 0xFF MUL NOT AND SWAP1 DUP4 ISZERO ISZERO MUL OR SWAP1 SSTORE POP SWAP1 POP POP POP JUMP JUMPDEST PUSH1 0x60 PUSH0 PUSH0 PUSH0 PUSH1 0x2 PUSH0 ADD PUSH1 0x2 PUSH1 0x1 ADD SLOAD PUSH1 0x2 DUP1 ADD SLOAD PUSH1 0x2 PUSH1 0x3 ADD PUSH0 SWAP1 SLOAD SWAP1 PUSH2 0x100 EXP SWAP1 DIV PUSH1 0xFF AND DUP4 DUP1 SLOAD PUSH2 0x3DA SWAP1 PUSH2 0xEED JUMP JUMPDEST DUP1 PUSH1 0x1F ADD PUSH1 0x20 DUP1 SWAP2 DIV MUL PUSH1 0x20 ADD PUSH1 0x40 MLOAD SWAP1 DUP2 ADD PUSH1 0x40 MSTORE DUP1 SWAP3 SWAP2 SWAP1 DUP2 DUP2 MSTORE PUSH1 0x20 ADD DUP3 DUP1 SLOAD PUSH2 0x406 SWAP1 PUSH2 0xEED JUMP JUMPDEST DUP1 ISZERO PUSH2 0x451 JUMPI DUP1 PUSH1 0x1F LT PUSH2 0x428 JUMPI PUSH2 0x100 DUP1 DUP4 SLOAD DIV MUL DUP4 MSTORE SWAP2 PUSH1 0x20 ADD SWAP2 PUSH2 0x451 JUMP JUMPDEST DUP3 ADD SWAP2 SWAP1 PUSH0 MSTORE PUSH1 0x20 PUSH0 KECCAK256 SWAP1 JUMPDEST DUP2 SLOAD DUP2 MSTORE SWAP1 PUSH1 0x1 ADD SWAP1 PUSH1 0x20 ADD DUP1 DUP4 GT PUSH2 0x434 JUMPI DUP3 SWAP1 SUB PUSH1 0x1F AND DUP3 ADD SWAP2 JUMPDEST POP POP POP POP POP SWAP4 POP SWAP4 POP SWAP4 POP SWAP4 POP SWAP4 POP SWAP1 SWAP2 SWAP3 SWAP4 JUMP JUMPDEST PUSH0 PUSH0 SWAP1 SLOAD SWAP1 PUSH2 0x100 EXP SWAP1 DIV PUSH20 0xFFFFFFFFFFFFFFFFFFFFFFFFFFFFFFFFFFFFFFFF AND PUSH20 0xFFFFFFFFFFFFFFFFFFFFFFFFFFFFFFFFFFFFFFFF AND CALLER PUSH20 0xFFFFFFFFFFFFFFFFFFFFFFFFFFFFFFFFFFFFFFFF AND EQ PUSH2 0x4F4 JUMPI PUSH1 0x40 MLOAD PUSH32 0x8C379A000000000000000000000000000000000000000000000000000000000 DUP2 MSTORE PUSH1 0x4 ADD PUSH2 0x4EB SWAP1 PUSH2 0xF67 JUMP JUMPDEST PUSH1 0x40 MLOAD DUP1 SWAP2 SUB SWAP1 REVERT JUMPDEST PUSH0 PUSH1 0x2 PUSH1 0x3 ADD PUSH0 PUSH2 0x100 EXP DUP2 SLOAD DUP2 PUSH1 0xFF MUL NOT AND SWAP1 DUP4 ISZERO ISZERO MUL OR SWAP1 SSTORE POP JUMP JUMPDEST PUSH0 PUSH0 SWAP1 SLOAD SWAP1 PUSH2 0x100 EXP SWAP1 DIV PUSH20 0xFFFFFFFFFFFFFFFFFFFFFFFFFFFFFFFFFFFFFFFF AND DUP2 JUMP JUMPDEST PUSH1 0x6 PUSH1 0x20 MSTORE DUP1 PUSH0 MSTORE PUSH1 0x40 PUSH0 KECCAK256 PUSH0 SWAP2 POP SLOAD SWAP1 PUSH2 0x100 EXP SWAP1 DIV PUSH1 0xFF AND DUP2 JUMP JUMPDEST PUSH0 PUSH0 SWAP1 SLOAD SWAP1 PUSH2 0x100 EXP SWAP1 DIV PUSH20 0xFFFFFFFFFFFFFFFFFFFFFFFFFFFFFFFFFFFFFFFF AND PUSH20 0xFFFFFFFFFFFFFFFFFFFFFFFFFFFFFFFFFFFFFFFF AND CALLER PUSH20 0xFFFFFFFFFFFFFFFFFFFFFFFFFFFFFFFFFFFFFFFF AND EQ PUSH2 0x5E1 JUMPI PUSH1 0x40 MLOAD PUSH32 0x8C379A000000000000000000000000000000000000000000000000000000000 DUP2 MSTORE PUSH1 0x4 ADD PUSH2 0x5D8 SWAP1 PUSH2 0xF67 JUMP JUMPDEST PUSH1 0x40 MLOAD DUP1 SWAP2 SUB SWAP1 REVERT JUMPDEST PUSH1 0x40 MLOAD DUP1 PUSH1 0x60 ADD PUSH1 0x40 MSTORE DUP1 DUP4 DUP2 MSTORE PUSH1 0x20 ADD DUP3 DUP2 MSTORE PUSH1 0x20 ADD PUSH1 0x1 ISZERO ISZERO DUP2 MSTORE POP PUSH1 0x1 PUSH0 DUP6 PUSH20 0xFFFFFFFFFFFFFFFFFFFFFFFFFFFFFFFFFFFFFFFF AND PUSH20 0xFFFFFFFFFFFFFFFFFFFFFFFFFFFFFFFFFFFFFFFF AND DUP2 MSTORE PUSH1 0x20 ADD SWAP1 DUP2 MSTORE PUSH1 0x20 ADD PUSH0 KECCAK256 PUSH0 DUP3 ADD MLOAD DUP2 PUSH0 ADD SWAP1 DUP2 PUSH2 0x64F SWAP2 SWAP1 PUSH2 0x1136 JUMP JUMPDEST POP PUSH1 0x20 DUP3 ADD MLOAD DUP2 PUSH1 0x1 ADD SSTORE PUSH1 0x40 DUP3 ADD MLOAD DUP2 PUSH1 0x2 ADD PUSH0 PUSH2 0x100 EXP DUP2 SLOAD DUP2 PUSH1 0xFF MUL NOT AND SWAP1 DUP4 ISZERO ISZERO MUL OR SWAP1 SSTORE POP SWAP1 POP POP POP POP POP JUMP JUMPDEST PUSH1 0x2 DUP1 PUSH0 ADD DUP1 SLOAD PUSH2 0x691 SWAP1 PUSH2 0xEED JUMP JUMPDEST DUP1 PUSH1 0x1F ADD PUSH1 0x20 DUP1 SWAP2 DIV MUL PUSH1 0x20 ADD PUSH1 0x40 MLOAD SWAP1 DUP2 ADD PUSH1 0x40 MSTORE DUP1 SWAP3 SWAP2 SWAP1 DUP2 DUP2 MSTORE PUSH1 0x20 ADD DUP3 DUP1 SLOAD PUSH2 0x6BD SWAP1 PUSH2 0xEED JUMP JUMPDEST DUP1 ISZERO PUSH2 0x708 JUMPI DUP1 PUSH1 0x1F LT PUSH2 0x6DF JUMPI PUSH2 0x100 DUP1 DUP4 SLOAD DIV MUL DUP4 MSTORE SWAP2 PUSH1 0x20 ADD SWAP2 PUSH2 0x708 JUMP JUMPDEST DUP3 ADD SWAP2 SWAP1 PUSH0 MSTORE PUSH1 0x20 PUSH0 KECCAK256 SWAP1 JUMPDEST DUP2 SLOAD DUP2 MSTORE SWAP1 PUSH1 0x1 ADD SWAP1 PUSH1 0x20 ADD DUP1 DUP4 GT PUSH2 0x6EB JUMPI DUP3 SWAP1 SUB PUSH1 0x1F AND DUP3 ADD SWAP2 JUMPDEST POP POP POP POP POP SWAP1 DUP1 PUSH1 0x1 ADD SLOAD SWAP1 DUP1 PUSH1 0x2 ADD SLOAD SWAP1 DUP1 PUSH1 0x3 ADD PUSH0 SWAP1 SLOAD SWAP1 PUSH2 0x100 EXP SWAP1 DIV PUSH1 0xFF AND SWAP1 POP DUP5 JUMP JUMPDEST PUSH1 0x1 PUSH0 CALLER PUSH20 0xFFFFFFFFFFFFFFFFFFFFFFFFFFFFFFFFFFFFFFFF AND PUSH20 0xFFFFFFFFFFFFFFFFFFFFFFFFFFFFFFFFFFFFFFFF AND DUP2 MSTORE PUSH1 0x20 ADD SWAP1 DUP2 MSTORE PUSH1 0x20 ADD PUSH0 KECCAK256 PUSH1 0x2 ADD PUSH0 SWAP1 SLOAD SWAP1 PUSH2 0x100 EXP SWAP1 DIV PUSH1 0xFF AND PUSH2 0x7BC JUMPI PUSH1 0x40 MLOAD PUSH32 0x8C379A000000000000000000000000000000000000000000000000000000000 DUP2 MSTORE PUSH1 0x4 ADD PUSH2 0x7B3 SWAP1 PUSH2 0x124F JUMP JUMPDEST PUSH1 0x40 MLOAD DUP1 SWAP2 SUB SWAP1 REVERT JUMPDEST PUSH1 0x6 PUSH0 CALLER PUSH20 0xFFFFFFFFFFFFFFFFFFFFFFFFFFFFFFFFFFFFFFFF AND PUSH20 0xFFFFFFFFFFFFFFFFFFFFFFFFFFFFFFFFFFFFFFFF AND DUP2 MSTORE PUSH1 0x20 ADD SWAP1 DUP2 MSTORE PUSH1 0x20 ADD PUSH0 KECCAK256 PUSH0 SWAP1 SLOAD SWAP1 PUSH2 0x100 EXP SWAP1 DIV PUSH1 0xFF AND ISZERO PUSH2 0x846 JUMPI PUSH1 0x40 MLOAD PUSH32 0x8C379A000000000000000000000000000000000000000000000000000000000 DUP2 MSTORE PUSH1 0x4 ADD PUSH2 0x83D SWAP1 PUSH2 0x12B7 JUMP JUMPDEST PUSH1 0x40 MLOAD DUP1 SWAP2 SUB SWAP1 REVERT JUMPDEST PUSH1 0x2 PUSH1 0x3 ADD PUSH0 SWAP1 SLOAD SWAP1 PUSH2 0x100 EXP SWAP1 DIV PUSH1 0xFF AND PUSH2 0x897 JUMPI PUSH1 0x40 MLOAD PUSH32 0x8C379A000000000000000000000000000000000000000000000000000000000 DUP2 MSTORE PUSH1 0x4 ADD PUSH2 0x88E SWAP1 PUSH2 0x131F JUMP JUMPDEST PUSH1 0x40 MLOAD DUP1 SWAP2 SUB SWAP1 REVERT JUMPDEST PUSH0 PUSH1 0x1 PUSH0 CALLER PUSH20 0xFFFFFFFFFFFFFFFFFFFFFFFFFFFFFFFFFFFFFFFF AND PUSH20 0xFFFFFFFFFFFFFFFFFFFFFFFFFFFFFFFFFFFFFFFF AND DUP2 MSTORE PUSH1 0x20 ADD SWAP1 DUP2 MSTORE PUSH1 0x20 ADD PUSH0 KECCAK256 PUSH1 0x1 ADD SLOAD SWAP1 POP DUP2 ISZERO PUSH2 0x901 JUMPI DUP1 PUSH1 0x2 PUSH1 0x1 ADD PUSH0 DUP3 DUP3 SLOAD PUSH2 0x8F5 SWAP2 SWAP1 PUSH2 0x136A JUMP JUMPDEST SWAP3 POP POP DUP2 SWAP1 SSTORE POP PUSH2 0x91C JUMP JUMPDEST DUP1 PUSH1 0x2 DUP1 ADD PUSH0 DUP3 DUP3 SLOAD PUSH2 0x914 SWAP2 SWAP1 PUSH2 0x136A JUMP JUMPDEST SWAP3 POP POP DUP2 SWAP1 SSTORE POP JUMPDEST PUSH1 0x1 PUSH1 0x6 PUSH0 CALLER PUSH20 0xFFFFFFFFFFFFFFFFFFFFFFFFFFFFFFFFFFFFFFFF AND PUSH20 0xFFFFFFFFFFFFFFFFFFFFFFFFFFFFFFFFFFFFFFFF AND DUP2 MSTORE PUSH1 0x20 ADD SWAP1 DUP2 MSTORE PUSH1 0x20 ADD PUSH0 KECCAK256 PUSH0 PUSH2 0x100 EXP DUP2 SLOAD DUP2 PUSH1 0xFF MUL NOT AND SWAP1 DUP4 ISZERO ISZERO MUL OR SWAP1 SSTORE POP POP POP JUMP JUMPDEST PUSH0 PUSH1 0x1 PUSH0 DUP4 PUSH20 0xFFFFFFFFFFFFFFFFFFFFFFFFFFFFFFFFFFFFFFFF AND PUSH20 0xFFFFFFFFFFFFFFFFFFFFFFFFFFFFFFFFFFFFFFFF AND DUP2 MSTORE PUSH1 0x20 ADD SWAP1 DUP2 MSTORE PUSH1 0x20 ADD PUSH0 KECCAK256 PUSH1 0x2 ADD PUSH0 SWAP1 SLOAD SWAP1 PUSH2 0x100 EXP SWAP1 DIV PUSH1 0xFF AND PUSH2 0xA02 JUMPI PUSH1 0x40 MLOAD PUSH32 0x8C379A000000000000000000000000000000000000000000000000000000000 DUP2 MSTORE PUSH1 0x4 ADD PUSH2 0x9F9 SWAP1 PUSH2 0x13E7 JUMP JUMPDEST PUSH1 0x40 MLOAD DUP1 SWAP2 SUB SWAP1 REVERT JUMPDEST PUSH1 0x1 PUSH0 DUP4 PUSH20 0xFFFFFFFFFFFFFFFFFFFFFFFFFFFFFFFFFFFFFFFF AND PUSH20 0xFFFFFFFFFFFFFFFFFFFFFFFFFFFFFFFFFFFFFFFF AND DUP2 MSTORE PUSH1 0x20 ADD SWAP1 DUP2 MSTORE PUSH1 0x20 ADD PUSH0 KECCAK256 PUSH1 0x1 ADD SLOAD SWAP1 POP SWAP2 SWAP1 POP JUMP JUMPDEST PUSH0 PUSH1 0x40 MLOAD SWAP1 POP SWAP1 JUMP JUMPDEST PUSH0 PUSH0 REVERT JUMPDEST PUSH0 PUSH0 REVERT JUMPDEST PUSH0 PUSH20 0xFFFFFFFFFFFFFFFFFFFFFFFFFFFFFFFFFFFFFFFF DUP3 AND SWAP1 POP SWAP2 SWAP1 POP JUMP JUMPDEST PUSH0 PUSH2 0xA84 DUP3 PUSH2 0xA5B JUMP JUMPDEST SWAP1 POP SWAP2 SWAP1 POP JUMP JUMPDEST PUSH2 0xA94 DUP2 PUSH2 0xA7A JUMP JUMPDEST DUP2 EQ PUSH2 0xA9E JUMPI PUSH0 PUSH0 REVERT JUMPDEST POP JUMP JUMPDEST PUSH0 DUP2 CALLDATALOAD SWAP1 POP PUSH2 0xAAF DUP2 PUSH2 0xA8B JUMP JUMPDEST SWAP3 SWAP2 POP POP JUMP JUMPDEST PUSH0 PUSH1 0x20 DUP3 DUP5 SUB SLT ISZERO PUSH2 0xACA JUMPI PUSH2 0xAC9 PUSH2 0xA53 JUMP JUMPDEST JUMPDEST PUSH0 PUSH2 0xAD7 DUP5 DUP3 DUP6 ADD PUSH2 0xAA1 JUMP JUMPDEST SWAP2 POP POP SWAP3 SWAP2 POP POP JUMP JUMPDEST PUSH0 DUP2 MLOAD SWAP1 POP SWAP2 SWAP1 POP JUMP JUMPDEST PUSH0 DUP3 DUP3 MSTORE PUSH1 0x20 DUP3 ADD SWAP1 POP SWAP3 SWAP2 POP POP JUMP JUMPDEST DUP3 DUP2 DUP4 MCOPY PUSH0 DUP4 DUP4 ADD MSTORE POP POP POP JUMP JUMPDEST PUSH0 PUSH1 0x1F NOT PUSH1 0x1F DUP4 ADD AND SWAP1 POP SWAP2 SWAP1 POP JUMP JUMPDEST PUSH0 PUSH2 0xB22 DUP3 PUSH2 0xAE0 JUMP JUMPDEST PUSH2 0xB2C DUP2 DUP6 PUSH2 0xAEA JUMP JUMPDEST SWAP4 POP PUSH2 0xB3C DUP2 DUP6 PUSH1 0x20 DUP7 ADD PUSH2 0xAFA JUMP JUMPDEST PUSH2 0xB45 DUP2 PUSH2 0xB08 JUMP JUMPDEST DUP5 ADD SWAP2 POP POP SWAP3 SWAP2 POP POP JUMP JUMPDEST PUSH0 DUP2 SWAP1 POP SWAP2 SWAP1 POP JUMP JUMPDEST PUSH2 0xB62 DUP2 PUSH2 0xB50 JUMP JUMPDEST DUP3 MSTORE POP POP JUMP JUMPDEST PUSH0 DUP2 ISZERO ISZERO SWAP1 POP SWAP2 SWAP1 POP JUMP JUMPDEST PUSH2 0xB7C DUP2 PUSH2 0xB68 JUMP JUMPDEST DUP3 MSTORE POP POP JUMP JUMPDEST PUSH0 PUSH1 0x60 DUP3 ADD SWAP1 POP DUP2 DUP2 SUB PUSH0 DUP4 ADD MSTORE PUSH2 0xB9A DUP2 DUP7 PUSH2 0xB18 JUMP JUMPDEST SWAP1 POP PUSH2 0xBA9 PUSH1 0x20 DUP4 ADD DUP6 PUSH2 0xB59 JUMP JUMPDEST PUSH2 0xBB6 PUSH1 0x40 DUP4 ADD DUP5 PUSH2 0xB73 JUMP JUMPDEST SWAP5 SWAP4 POP POP POP POP JUMP JUMPDEST PUSH0 PUSH0 REVERT JUMPDEST PUSH0 PUSH0 REVERT JUMPDEST PUSH32 0x4E487B7100000000000000000000000000000000000000000000000000000000 PUSH0 MSTORE PUSH1 0x41 PUSH1 0x4 MSTORE PUSH1 0x24 PUSH0 REVERT JUMPDEST PUSH2 0xBFC DUP3 PUSH2 0xB08 JUMP JUMPDEST DUP2 ADD DUP2 DUP2 LT PUSH8 0xFFFFFFFFFFFFFFFF DUP3 GT OR ISZERO PUSH2 0xC1B JUMPI PUSH2 0xC1A PUSH2 0xBC6 JUMP JUMPDEST JUMPDEST DUP1 PUSH1 0x40 MSTORE POP POP POP JUMP JUMPDEST PUSH0 PUSH2 0xC2D PUSH2 0xA4A JUMP JUMPDEST SWAP1 POP PUSH2 0xC39 DUP3 DUP3 PUSH2 0xBF3 JUMP JUMPDEST SWAP2 SWAP1 POP JUMP JUMPDEST PUSH0 PUSH8 0xFFFFFFFFFFFFFFFF DUP3 GT ISZERO PUSH2 0xC58 JUMPI PUSH2 0xC57 PUSH2 0xBC6 JUMP JUMPDEST JUMPDEST PUSH2 0xC61 DUP3 PUSH2 0xB08 JUMP JUMPDEST SWAP1 POP PUSH1 0x20 DUP2 ADD SWAP1 POP SWAP2 SWAP1 POP JUMP JUMPDEST DUP3 DUP2 DUP4 CALLDATACOPY PUSH0 DUP4 DUP4 ADD MSTORE POP POP POP JUMP JUMPDEST PUSH0 PUSH2 0xC8E PUSH2 0xC89 DUP5 PUSH2 0xC3E JUMP JUMPDEST PUSH2 0xC24 JUMP JUMPDEST SWAP1 POP DUP3 DUP2 MSTORE PUSH1 0x20 DUP2 ADD DUP5 DUP5 DUP5 ADD GT ISZERO PUSH2 0xCAA JUMPI PUSH2 0xCA9 PUSH2 0xBC2 JUMP JUMPDEST JUMPDEST PUSH2 0xCB5 DUP5 DUP3 DUP6 PUSH2 0xC6E JUMP JUMPDEST POP SWAP4 SWAP3 POP POP POP JUMP JUMPDEST PUSH0 DUP3 PUSH1 0x1F DUP4 ADD SLT PUSH2 0xCD1 JUMPI PUSH2 0xCD0 PUSH2 0xBBE JUMP JUMPDEST JUMPDEST DUP2 CALLDATALOAD PUSH2 0xCE1 DUP5 DUP3 PUSH1 0x20 DUP7 ADD PUSH2 0xC7C JUMP JUMPDEST SWAP2 POP POP SWAP3 SWAP2 POP POP JUMP JUMPDEST PUSH0 PUSH1 0x20 DUP3 DUP5 SUB SLT ISZERO PUSH2 0xCFF JUMPI PUSH2 0xCFE PUSH2 0xA53 JUMP JUMPDEST JUMPDEST PUSH0 DUP3 ADD CALLDATALOAD PUSH8 0xFFFFFFFFFFFFFFFF DUP2 GT ISZERO PUSH2 0xD1C JUMPI PUSH2 0xD1B PUSH2 0xA57 JUMP JUMPDEST JUMPDEST PUSH2 0xD28 DUP5 DUP3 DUP6 ADD PUSH2 0xCBD JUMP JUMPDEST SWAP2 POP POP SWAP3 SWAP2 POP POP JUMP JUMPDEST PUSH0 PUSH1 0x80 DUP3 ADD SWAP1 POP DUP2 DUP2 SUB PUSH0 DUP4 ADD MSTORE PUSH2 0xD49 DUP2 DUP8 PUSH2 0xB18 JUMP JUMPDEST SWAP1 POP PUSH2 0xD58 PUSH1 0x20 DUP4 ADD DUP7 PUSH2 0xB59 JUMP JUMPDEST PUSH2 0xD65 PUSH1 0x40 DUP4 ADD DUP6 PUSH2 0xB59 JUMP JUMPDEST PUSH2 0xD72 PUSH1 0x60 DUP4 ADD DUP5 PUSH2 0xB73 JUMP JUMPDEST SWAP6 SWAP5 POP POP POP POP POP JUMP JUMPDEST PUSH2 0xD84 DUP2 PUSH2 0xA7A JUMP JUMPDEST DUP3 MSTORE POP POP JUMP JUMPDEST PUSH0 PUSH1 0x20 DUP3 ADD SWAP1 POP PUSH2 0xD9D PUSH0 DUP4 ADD DUP5 PUSH2 0xD7B JUMP JUMPDEST SWAP3 SWAP2 POP POP JUMP JUMPDEST PUSH0 PUSH1 0x20 DUP3 ADD SWAP1 POP PUSH2 0xDB6 PUSH0 DUP4 ADD DUP5 PUSH2 0xB73 JUMP JUMPDEST SWAP3 SWAP2 POP POP JUMP JUMPDEST PUSH2 0xDC5 DUP2 PUSH2 0xB50 JUMP JUMPDEST DUP2 EQ PUSH2 0xDCF JUMPI PUSH0 PUSH0 REVERT JUMPDEST POP JUMP JUMPDEST PUSH0 DUP2 CALLDATALOAD SWAP1 POP PUSH2 0xDE0 DUP2 PUSH2 0xDBC JUMP JUMPDEST SWAP3 SWAP2 POP POP JUMP JUMPDEST PUSH0 PUSH0 PUSH0 PUSH1 0x60 DUP5 DUP7 SUB SLT ISZERO PUSH2 0xDFD JUMPI PUSH2 0xDFC PUSH2 0xA53 JUMP JUMPDEST JUMPDEST PUSH0 PUSH2 0xE0A DUP7 DUP3 DUP8 ADD PUSH2 0xAA1 JUMP JUMPDEST SWAP4 POP POP PUSH1 0x20 DUP5 ADD CALLDATALOAD PUSH8 0xFFFFFFFFFFFFFFFF DUP2 GT ISZERO PUSH2 0xE2B JUMPI PUSH2 0xE2A PUSH2 0xA57 JUMP JUMPDEST JUMPDEST PUSH2 0xE37 DUP7 DUP3 DUP8 ADD PUSH2 0xCBD JUMP JUMPDEST SWAP3 POP POP PUSH1 0x40 PUSH2 0xE48 DUP7 DUP3 DUP8 ADD PUSH2 0xDD2 JUMP JUMPDEST SWAP2 POP POP SWAP3 POP SWAP3 POP SWAP3 JUMP JUMPDEST PUSH2 0xE5B DUP2 PUSH2 0xB68 JUMP JUMPDEST DUP2 EQ PUSH2 0xE65 JUMPI PUSH0 PUSH0 REVERT JUMPDEST POP JUMP JUMPDEST PUSH0 DUP2 CALLDATALOAD SWAP1 POP PUSH2 0xE76 DUP2 PUSH2 0xE52 JUMP JUMPDEST SWAP3 SWAP2 POP POP JUMP JUMPDEST PUSH0 PUSH1 0x20 DUP3 DUP5 SUB SLT ISZERO PUSH2 0xE91 JUMPI PUSH2 0xE90 PUSH2 0xA53 JUMP JUMPDEST JUMPDEST PUSH0 PUSH2 0xE9E DUP5 DUP3 DUP6 ADD PUSH2 0xE68 JUMP JUMPDEST SWAP2 POP POP SWAP3 SWAP2 POP POP JUMP JUMPDEST PUSH0 PUSH1 0x20 DUP3 ADD SWAP1 POP PUSH2 0xEBA PUSH0 DUP4 ADD DUP5 PUSH2 0xB59 JUMP JUMPDEST SWAP3 SWAP2 POP POP JUMP JUMPDEST PUSH32 0x4E487B7100000000000000000000000000000000000000000000000000000000 PUSH0 MSTORE PUSH1 0x22 PUSH1 0x4 MSTORE PUSH1 0x24 PUSH0 REVERT JUMPDEST PUSH0 PUSH1 0x2 DUP3 DIV SWAP1 POP PUSH1 0x1 DUP3 AND DUP1 PUSH2 0xF04 JUMPI PUSH1 0x7F DUP3 AND SWAP2 POP JUMPDEST PUSH1 0x20 DUP3 LT DUP2 SUB PUSH2 0xF17 JUMPI PUSH2 0xF16 PUSH2 0xEC0 JUMP JUMPDEST JUMPDEST POP SWAP2 SWAP1 POP JUMP JUMPDEST PUSH32 0x48616E7961206F776E6572000000000000000000000000000000000000000000 PUSH0 DUP3 ADD MSTORE POP JUMP JUMPDEST PUSH0 PUSH2 0xF51 PUSH1 0xB DUP4 PUSH2 0xAEA JUMP JUMPDEST SWAP2 POP PUSH2 0xF5C DUP3 PUSH2 0xF1D JUMP JUMPDEST PUSH1 0x20 DUP3 ADD SWAP1 POP SWAP2 SWAP1 POP JUMP JUMPDEST PUSH0 PUSH1 0x20 DUP3 ADD SWAP1 POP DUP2 DUP2 SUB PUSH0 DUP4 ADD MSTORE PUSH2 0xF7E DUP2 PUSH2 0xF45 JUMP JUMPDEST SWAP1 POP SWAP2 SWAP1 POP JUMP JUMPDEST PUSH0 DUP2 SWAP1 POP DUP2 PUSH0 MSTORE PUSH1 0x20 PUSH0 KECCAK256 SWAP1 POP SWAP2 SWAP1 POP JUMP JUMPDEST PUSH0 PUSH1 0x20 PUSH1 0x1F DUP4 ADD DIV SWAP1 POP SWAP2 SWAP1 POP JUMP JUMPDEST PUSH0 DUP3 DUP3 SHL SWAP1 POP SWAP3 SWAP2 POP POP JUMP JUMPDEST PUSH0 PUSH1 0x8 DUP4 MUL PUSH2 0xFE1 PUSH32 0xFFFFFFFFFFFFFFFFFFFFFFFFFFFFFFFFFFFFFFFFFFFFFFFFFFFFFFFFFFFFFFFF DUP3 PUSH2 0xFA6 JUMP JUMPDEST PUSH2 0xFEB DUP7 DUP4 PUSH2 0xFA6 JUMP JUMPDEST SWAP6 POP DUP1 NOT DUP5 AND SWAP4 POP DUP1 DUP7 AND DUP5 OR SWAP3 POP POP POP SWAP4 SWAP3 POP POP POP JUMP JUMPDEST PUSH0 DUP2 SWAP1 POP SWAP2 SWAP1 POP JUMP JUMPDEST PUSH0 PUSH2 0x1026 PUSH2 0x1021 PUSH2 0x101C DUP5 PUSH2 0xB50 JUMP JUMPDEST PUSH2 0x1003 JUMP JUMPDEST PUSH2 0xB50 JUMP JUMPDEST SWAP1 POP SWAP2 SWAP1 POP JUMP JUMPDEST PUSH0 DUP2 SWAP1 POP SWAP2 SWAP1 POP JUMP JUMPDEST PUSH2 0x103F DUP4 PUSH2 0x100C JUMP JUMPDEST PUSH2 0x1053 PUSH2 0x104B DUP3 PUSH2 0x102D JUMP JUMPDEST DUP5 DUP5 SLOAD PUSH2 0xFB2 JUMP JUMPDEST DUP3 SSTORE POP POP POP POP JUMP JUMPDEST PUSH0 PUSH0 SWAP1 POP SWAP1 JUMP JUMPDEST PUSH2 0x106A PUSH2 0x105B JUMP JUMPDEST PUSH2 0x1075 DUP2 DUP5 DUP5 PUSH2 0x1036 JUMP JUMPDEST POP POP POP JUMP JUMPDEST PUSH0 JUMPDEST DUP3 DUP2 LT ISZERO PUSH2 0x109B JUMPI PUSH2 0x1090 PUSH0 DUP3 DUP5 ADD PUSH2 0x1062 JUMP JUMPDEST PUSH1 0x1 DUP2 ADD SWAP1 POP PUSH2 0x107C JUMP JUMPDEST POP POP POP JUMP JUMPDEST PUSH1 0x1F DUP3 GT ISZERO PUSH2 0x10EE JUMPI DUP3 DUP3 GT ISZERO PUSH2 0x10ED JUMPI PUSH2 0x10BA DUP2 PUSH2 0xF85 JUMP JUMPDEST PUSH2 0x10C3 DUP4 PUSH2 0xF97 JUMP JUMPDEST PUSH2 0x10CC DUP6 PUSH2 0xF97 JUMP JUMPDEST PUSH1 0x20 DUP7 LT ISZERO PUSH2 0x10D9 JUMPI PUSH0 SWAP1 POP JUMPDEST DUP1 DUP4 ADD PUSH2 0x10E8 DUP3 DUP5 SUB DUP3 PUSH2 0x107A JUMP JUMPDEST POP POP POP POP JUMPDEST JUMPDEST POP POP POP JUMP JUMPDEST PUSH0 DUP3 DUP3 SHR SWAP1 POP SWAP3 SWAP2 POP POP JUMP JUMPDEST PUSH0 PUSH2 0x110E PUSH0 NOT DUP5 PUSH1 0x8 MUL PUSH2 0x10F3 JUMP JUMPDEST NOT DUP1 DUP4 AND SWAP2 POP POP SWAP3 SWAP2 POP POP JUMP JUMPDEST PUSH0 PUSH2 0x1126 DUP4 DUP4 PUSH2 0x10FF JUMP JUMPDEST SWAP2 POP DUP3 PUSH1 0x2 MUL DUP3 OR SWAP1 POP SWAP3 SWAP2 POP POP JUMP JUMPDEST PUSH2 0x113F DUP3 PUSH2 0xAE0 JUMP JUMPDEST PUSH8 0xFFFFFFFFFFFFFFFF DUP2 GT ISZERO PUSH2 0x1158 JUMPI PUSH2 0x1157 PUSH2 0xBC6 JUMP JUMPDEST JUMPDEST PUSH2 0x1162 DUP3 SLOAD PUSH2 0xEED JUMP JUMPDEST PUSH2 0x116D DUP3 DUP3 DUP6 PUSH2 0x10A0 JUMP JUMPDEST PUSH0 PUSH1 0x20 SWAP1 POP PUSH1 0x1F DUP4 GT PUSH1 0x1 DUP2 EQ PUSH2 0x119E JUMPI PUSH0 DUP5 ISZERO PUSH2 0x118C JUMPI DUP3 DUP8 ADD MLOAD SWAP1 POP JUMPDEST PUSH2 0x1196 DUP6 DUP3 PUSH2 0x111B JUMP JUMPDEST DUP7 SSTORE POP PUSH2 0x11FD JUMP JUMPDEST PUSH1 0x1F NOT DUP5 AND PUSH2 0x11AC DUP7 PUSH2 0xF85 JUMP JUMPDEST PUSH0 JUMPDEST DUP3 DUP2 LT ISZERO PUSH2 0x11D3 JUMPI DUP5 DUP10 ADD MLOAD DUP3 SSTORE PUSH1 0x1 DUP3 ADD SWAP2 POP PUSH1 0x20 DUP6 ADD SWAP5 POP PUSH1 0x20 DUP2 ADD SWAP1 POP PUSH2 0x11AE JUMP JUMPDEST DUP7 DUP4 LT ISZERO PUSH2 0x11F0 JUMPI DUP5 DUP10 ADD MLOAD PUSH2 0x11EC PUSH1 0x1F DUP10 AND DUP3 PUSH2 0x10FF JUMP JUMPDEST DUP4 SSTORE POP JUMPDEST PUSH1 0x1 PUSH1 0x2 DUP9 MUL ADD DUP9 SSTORE POP POP POP JUMPDEST POP POP POP POP POP POP JUMP JUMPDEST PUSH32 0x42756B616E2070656D6567616E6720736168616D000000000000000000000000 PUSH0 DUP3 ADD MSTORE POP JUMP JUMPDEST PUSH0 PUSH2 0x1239 PUSH1 0x14 DUP4 PUSH2 0xAEA JUMP JUMPDEST SWAP2 POP PUSH2 0x1244 DUP3 PUSH2 0x1205 JUMP JUMPDEST PUSH1 0x20 DUP3 ADD SWAP1 POP SWAP2 SWAP1 POP JUMP JUMPDEST PUSH0 PUSH1 0x20 DUP3 ADD SWAP1 POP DUP2 DUP2 SUB PUSH0 DUP4 ADD MSTORE PUSH2 0x1266 DUP2 PUSH2 0x122D JUMP JUMPDEST SWAP1 POP SWAP2 SWAP1 POP JUMP JUMPDEST PUSH32 0x537564616820766F74696E670000000000000000000000000000000000000000 PUSH0 DUP3 ADD MSTORE POP JUMP JUMPDEST PUSH0 PUSH2 0x12A1 PUSH1 0xC DUP4 PUSH2 0xAEA JUMP JUMPDEST SWAP2 POP PUSH2 0x12AC DUP3 PUSH2 0x126D JUMP JUMPDEST PUSH1 0x20 DUP3 ADD SWAP1 POP SWAP2 SWAP1 POP JUMP JUMPDEST PUSH0 PUSH1 0x20 DUP3 ADD SWAP1 POP DUP2 DUP2 SUB PUSH0 DUP4 ADD MSTORE PUSH2 0x12CE DUP2 PUSH2 0x1295 JUMP JUMPDEST SWAP1 POP SWAP2 SWAP1 POP JUMP JUMPDEST PUSH32 0x566F74696E6720746964616B20616B7469660000000000000000000000000000 PUSH0 DUP3 ADD MSTORE POP JUMP JUMPDEST PUSH0 PUSH2 0x1309 PUSH1 0x12 DUP4 PUSH2 0xAEA JUMP JUMPDEST SWAP2 POP PUSH2 0x1314 DUP3 PUSH2 0x12D5 JUMP JUMPDEST PUSH1 0x20 DUP3 ADD SWAP1 POP SWAP2 SWAP1 POP JUMP JUMPDEST PUSH0 PUSH1 0x20 DUP3 ADD SWAP1 POP DUP2 DUP2 SUB PUSH0 DUP4 ADD MSTORE PUSH2 0x1336 DUP2 PUSH2 0x12FD JUMP JUMPDEST SWAP1 POP SWAP2 SWAP1 POP JUMP JUMPDEST PUSH32 0x4E487B7100000000000000000000000000000000000000000000000000000000 PUSH0 MSTORE PUSH1 0x11 PUSH1 0x4 MSTORE PUSH1 0x24 PUSH0 REVERT JUMPDEST PUSH0 PUSH2 0x1374 DUP3 PUSH2 0xB50 JUMP JUMPDEST SWAP2 POP PUSH2 0x137F DUP4 PUSH2 0xB50 JUMP JUMPDEST SWAP3 POP DUP3 DUP3 ADD SWAP1 POP DUP1 DUP3 GT ISZERO PUSH2 0x1397 JUMPI PUSH2 0x1396 PUSH2 0x133D JUMP JUMPDEST JUMPDEST SWAP3 SWAP2 POP POP JUMP JUMPDEST PUSH32 0x42656C756D207465726461667461720000000000000000000000000000000000 PUSH0 DUP3 ADD MSTORE POP JUMP JUMPDEST PUSH0 PUSH2 0x13D1 PUSH1 0xF DUP4 PUSH2 0xAEA JUMP JUMPDEST SWAP2 POP PUSH2 0x13DC DUP3 PUSH2 0x139D JUMP JUMPDEST PUSH1 0x20 DUP3 ADD SWAP1 POP SWAP2 SWAP1 POP JUMP JUMPDEST PUSH0 PUSH1 0x20 DUP3 ADD SWAP1 POP DUP2 DUP2 SUB PUSH0 DUP4 ADD MSTORE PUSH2 0x13FE DUP2 PUSH2 0x13C5 JUMP JUMPDEST SWAP1 POP SWAP2 SWAP1 POP JUMP INVALID LOG2 PUSH5 0x6970667358 0x22 SLT KECCAK256 MOD DUP9 0xCF 0xD2 0xC1 DUP4 0x29 0xCF SWAP6 SELFBALANCE RETF MSTORE PREVRANDAO CLZ EXP ORIGIN 0xF SAR 0xBB SWAP2 PUSH16 0xB3EC4688EB0F0C21AA43FE64736F6C63 NUMBER STOP ADDMOD 0x22 STOP CALLER "
				},
				"gasEstimates": {
					"creation": {
						"codeDepositCost": "1035800",
						"executionCost": "25336",
						"totalCost": "1061136"
					},
					"external": {
						"daftarSaham(address)": "infinite",
						"hasilVoting()": "infinite",
						"lihatHakVoting(address)": "5169",
						"mulaiVoting(string)": "infinite",
						"owner()": "2596",
						"sudahVoting(address)": "2833",
						"tambahPemegangSaham(address,string,uint256)": "infinite",
						"tutupVoting()": "26649",
						"voting(bool)": "infinite",
						"votingSaatIni()": "infinite"
					}
				},
				"methodIdentifiers": {
					"daftarSaham(address)": "00ab0d23",
					"hasilVoting()": "54dc7796",
					"lihatHakVoting(address)": "fede7b9c",
					"mulaiVoting(string)": "14f1bdcb",
					"owner()": "8da5cb5b",
					"sudahVoting(address)": "a6aedac8",
					"tambahPemegangSaham(address,string,uint256)": "d3df30a6",
					"tutupVoting()": "58724b87",
					"voting(bool)": "f6df3e5d",
					"votingSaatIni()": "e0afe63c"
				}
			},
			"storageLayout": {
				"storage": [
					{
						"astId": 3,
						"contract": "contracts/hakvotingpemegangsaham.sol:HakVotingSaham",
						"label": "owner",
						"offset": 0,
						"slot": "0",
						"type": "t_address"
					},
					{
						"astId": 24,
						"contract": "contracts/hakvotingpemegangsaham.sol:HakVotingSaham",
						"label": "daftarSaham",
						"offset": 0,
						"slot": "1",
						"type": "t_mapping(t_address,t_struct(PemegangSaham)19_storage)"
					},
					{
						"astId": 36,
						"contract": "contracts/hakvotingpemegangsaham.sol:HakVotingSaham",
						"label": "votingSaatIni",
						"offset": 0,
						"slot": "2",
						"type": "t_struct(Voting)33_storage"
					},
					{
						"astId": 40,
						"contract": "contracts/hakvotingpemegangsaham.sol:HakVotingSaham",
						"label": "sudahVoting",
						"offset": 0,
						"slot": "6",
						"type": "t_mapping(t_address,t_bool)"
					}
				],
				"types": {
					"t_address": {
						"encoding": "inplace",
						"label": "address",
						"numberOfBytes": "20"
					},
					"t_bool": {
						"encoding": "inplace",
						"label": "bool",
						"numberOfBytes": "1"
					},
					"t_mapping(t_address,t_bool)": {
						"encoding": "mapping",
						"key": "t_address",
						"label": "mapping(address => bool)",
						"numberOfBytes": "32",
						"value": "t_bool"
					},
					"t_mapping(t_address,t_struct(PemegangSaham)19_storage)": {
						"encoding": "mapping",
						"key": "t_address",
						"label": "mapping(address => struct HakVotingSaham.PemegangSaham)",
						"numberOfBytes": "32",
						"value": "t_struct(PemegangSaham)19_storage"
					},
					"t_string_storage": {
						"encoding": "bytes",
						"label": "string",
						"numberOfBytes": "32"
					},
					"t_struct(PemegangSaham)19_storage": {
						"encoding": "inplace",
						"label": "struct HakVotingSaham.PemegangSaham",
						"members": [
							{
								"astId": 14,
								"contract": "contracts/hakvotingpemegangsaham.sol:HakVotingSaham",
								"label": "nama",
								"offset": 0,
								"slot": "0",
								"type": "t_string_storage"
							},
							{
								"astId": 16,
								"contract": "contracts/hakvotingpemegangsaham.sol:HakVotingSaham",
								"label": "jumlahSaham",
								"offset": 0,
								"slot": "1",
								"type": "t_uint256"
							},
							{
								"astId": 18,
								"contract": "contracts/hakvotingpemegangsaham.sol:HakVotingSaham",
								"label": "terdaftar",
								"offset": 0,
								"slot": "2",
								"type": "t_bool"
							}
						],
						"numberOfBytes": "96"
					},
					"t_struct(Voting)33_storage": {
						"encoding": "inplace",
						"label": "struct HakVotingSaham.Voting",
						"members": [
							{
								"astId": 26,
								"contract": "contracts/hakvotingpemegangsaham.sol:HakVotingSaham",
								"label": "judul",
								"offset": 0,
								"slot": "0",
								"type": "t_string_storage"
							},
							{
								"astId": 28,
								"contract": "contracts/hakvotingpemegangsaham.sol:HakVotingSaham",
								"label": "setuju",
								"offset": 0,
								"slot": "1",
								"type": "t_uint256"
							},
							{
								"astId": 30,
								"contract": "contracts/hakvotingpemegangsaham.sol:HakVotingSaham",
								"label": "tidakSetuju",
								"offset": 0,
								"slot": "2",
								"type": "t_uint256"
							},
							{
								"astId": 32,
								"contract": "contracts/hakvotingpemegangsaham.sol:HakVotingSaham",
								"label": "aktif",
								"offset": 0,
								"slot": "3",
								"type": "t_bool"
							}
						],
						"numberOfBytes": "128"
					},
					"t_uint256": {
						"encoding": "inplace",
						"label": "uint256",
						"numberOfBytes": "32"
					}
				}
			},
			"userdoc": {
				"kind": "user",
				"methods": {},
				"version": 1
			}
		}
	}
}